:0400000026EF00F0F7
:100008002382FACF01F0FBCF02F0F2AC0EEF00F042
:1000180010EF00F020EF00F09DAC15EF00F017EFA7
:1000280000F020EF00F09EAC1CEF00F01EEF00F097
:1000380020EF00F0D1EC80F002C0FBFF01C0FAFF16
:080048002392110076EF80F015
:10FDFE000000C0C101C30302C2C60607C705C5C4C1
:10FE0E0004CC0C0DCD0FCFCE0E0ACACB0BC90908F0
:10FE1E00C8D81819D91BDBDA1A1EDEDF1FDD1D1C30
:10FE2E00DC14D4D515D71716D6D21213D311D1D0C0
:10FE3E0010F03031F133F3F23236F6F737F5353460
:10FE4E00F43CFCFD3DFF3F3EFEFA3A3BFB39F9F830
:10FE5E003828E8E929EB2B2AEAEE2E2FEF2DEDECD0
:10FE6E002CE42425E527E7E62622E2E323E1212000
:10FE7E00E0A06061A163A3A26266A6A767A5656400
:10FE8E00A46CACAD6DAF6F6EAEAA6A6BAB69A9A870
:10FE9E006878B8B979BB7B7ABABE7E7FBF7DBDBCB0
:10FEAE007CB47475B577B7B67672B2B373B1717040
:10FEBE00B0509091519353529296565797559594A0
:10FECE00549C5C5D9D5F9F9E5E5A9A9B5B995958B0
:10FEDE0098884849894B8B8A4A4E8E8F4F8D4D4C50
:10FEEE008C44848545874746868242438341818080
:10FEFE004000C1814001C0804101C0804100C181EC
:10FF0E004001C0804100C1814000C1814001C080DC
:10FF1E004101C0804100C1814000C1814001C080CB
:10FF2E004100C1814001C0804101C0804100C181BA
:10FF3E004001C0804100C1814000C1814001C080AC
:10FF4E004100C1814001C0804101C0804100C1819A
:10FF5E004000C1814001C0804101C0804100C1818B
:10FF6E004001C0804100C1814000C1814001C0807C
:10FF7E004101C0804100C1814000C1814001C0806B
:10FF8E004100C1814001C0804101C0804100C1815A
:10FF9E004000C1814001C0804101C0804100C1814B
:10FFAE004001C0804100C1814000C1814001C0803C
:10FFBE004100C1814001C0804101C0804100C1812A
:10FFCE004001C0804100C1814000C1814001C0801C
:10FFDE004101C0804100C1814000C1814001C0800B
:10FFEE004100C1814001C0804101C0804100C181FA
:02FFFE004000C1
:020000040001F9
:10000000000E156E000E146E050EB4EC80F0035059
:10001000122604501322144A152A15BE19EF80F037
:10002000155009E1080E145CD8A019EF80F01BEF01
:1000300080F004EF80F0D89013321232D89013324F
:100040001232D8901332123212C003F013C004F0EF
:100050000C0E066EE40E056EFEEC80F003C009F097
:1000600004C00AF0030E0C6E0B683CEC80F009C073
:1000700010F00AC011F01200000E0E6E000E0D6E90
:100080000B500C10D8B447EF80F049EF80F071EFBF
:1000900080F0010E0F6E51EF80F0D8900B360C36C9
:1000A0000F2A0CAE56EF80F058EF80F04DEF80F045
:1000B000D8900D360E360B50095C0C500A58D8A05B
:1000C00064EF80F066EF80F06BEF80F00B50095E1C
:1000D0000C500A5A0D80D8900C320B320F2E58EF6C
:1000E00080F00DC009F00EC00AF0120002EE00F020
:1000F00011EE00F0EE6AE550E150FCE1E250FAE169
:1001000001EE00F011EE00F0EE6AE550E150FCE186
:10011000E250FAE100EE16F00A0EEE6AE806FDE1A2
:100120002390239200011AEF81F0000E8D6E000ED5
:10013000916E000E8C6E000E896E000E8E6E000E9B
:100140008A6E000E8F6E000E8B6E000E906E96689B
:1001500097683F0E926E986893689968946895685E
:100160009A68F00EC1161200076E07C005F005462A
:100170000546C2500518C30B0518C26EC280C28264
:10018000C2B2C5EF80F0C7EF80F0C0EF80F0C4507E
:10019000066E056AC3500524036E000E0620046E29
:1001A00012009E9C205021102210D8B4DAEF80F06B
:1001B000DCEF80F0E9EF80F002D8E9EF80F0050095
:1001C000FA6E2050FD6E2150FE6E2250FF6EFA50E6
:1001D00012001200000EC16E020EC06E000EC36E41
:1001E000000EC46E010EC26E9D8C600E036E020E78
:1001F000046E010E056E22EC81F012000350050220
:10020000F3CF07F0F4CF08F003500602F3500826AE
:1002100004500502F350082607C003F008C004F09C
:1002200012002EEC81F095EC80F029EC81F0EAECE4
:1002300080F0120011EC81F000EC80F01CEF81F0F6
:1002400026EF00F003C020F004C021F005C022F02A
:100250001200020ED36E000E9B6E1200D09E120092
:0202600012008A
:06FFF800A0F4C4FFF8F7BD
:00000001FF
