:0400000093EF00F08A
:100008005182FACF1DF0FBCF1EF0E1CF1FF0E2CFF7
:1000180020F0D9CF21F0DACF22F0F3CF23F0F4CFBC
:1000280024F0F6CF25F0F7CF26F0F8CF27F0F5CF5C
:1000380028F0F2AA22EF00F024EF00F032EF00F0EF
:10004800F2A429EF00F02BEF00F032EF00F040ECC3
:100058008AF0D59E03EC8BF079EF00F0F2AC37EF25
:1000680000F039EF00F079EF00F09DA83EEF00F0C6
:1000780040EF00F056EF00F09EA845EF00F047EF84
:1000880000F056EF00F002D854EF00F00500FA6EC9
:100098004E50FD6E4F50FE6E5050FF6EFA501200DB
:1000A80079EF00F09DAA5BEF00F05DEF00F079EFCB
:1000B80000F09EAA62EF00F064EF00F079EF00F024
:1000C80002D871EF00F00500FA6E4B50FD6E4C50EF
:1000D800FE6E4D50FF6EFA501200AE50B0EC8AF032
:1000E8000FEC8BF0D58E79EF00F028C0F5FF27C014
:1000F800F8FF26C0F7FF25C0F6FF24C0F4FF23C091
:10010800F3FF22C0DAFF21C0D9FF20C0E2FF1FC0E1
:10011800E1FF1EC0FBFF1DC0FAFF51921100F2EF74
:0201280088F05D
:10FDE4000000C0C101C30302C2C60607C705C5C4DB
:10FDF40004CC0C0DCD0FCFCE0E0ACACB0BC909080B
:10FE0400C8D81819D91BDBDA1A1EDEDF1FDD1D1C4A
:10FE1400DC14D4D515D71716D6D21213D311D1D0DA
:10FE240010F03031F133F3F23236F6F737F535347A
:10FE3400F43CFCFD3DFF3F3EFEFA3A3BFB39F9F84A
:10FE44003828E8E929EB2B2AEAEE2E2FEF2DEDECEA
:10FE54002CE42425E527E7E62622E2E323E121201A
:10FE6400E0A06061A163A3A26266A6A767A565641A
:10FE7400A46CACAD6DAF6F6EAEAA6A6BAB69A9A88A
:10FE84006878B8B979BB7B7ABABE7E7FBF7DBDBCCA
:10FE94007CB47475B577B7B67672B2B373B171705A
:10FEA400B0509091519353529296565797559594BA
:10FEB400549C5C5D9D5F9F9E5E5A9A9B5B995958CA
:10FEC40098884849894B8B8A4A4E8E8F4F8D4D4C6A
:10FED4008C4484854587474686824243834181809A
:10FEE4004000C1814001C0804101C0804100C18106
:10FEF4004001C0804100C1814000C1814001C080F7
:10FF04004101C0804100C1814000C1814001C080E5
:10FF14004100C1814001C0804101C0804100C181D4
:10FF24004001C0804100C1814000C1814001C080C6
:10FF34004100C1814001C0804101C0804100C181B4
:10FF44004000C1814001C0804101C0804100C181A5
:10FF54004001C0804100C1814000C1814001C08096
:10FF64004101C0804100C1814000C1814001C08085
:10FF74004100C1814001C0804101C0804100C18174
:10FF84004000C1814001C0804101C0804100C18165
:10FF94004001C0804100C1814000C1814001C08056
:10FFA4004100C1814001C0804101C0804100C18144
:10FFB4004001C0804100C1814000C1814001C08036
:10FFC4004101C0804100C1814000C1814001C08025
:10FFD4004100C1814001C0804101C0804100C18114
:10FFE4004049203D20253034645B75415D00552037
:0CFFF4003D20253033645B6D565D00003D
:020000040001F9
:10000000010100510A6E0B6A0001C3510A1807E191
:10001000C4510B18D8A40FEF80F011EF80F04AEF15
:1000200081F0FF0E3F24D96EDA6A000EDA22DF502B
:100030000A6E0A50156E166A1550166E156AFE0E77
:100040003F24D96EDA6A000EDA22DF500A6E0A50B7
:100050001526000E1622000E016E010E026EFE0E17
:100060003F24036E046AFF0E0422A4EC87F001C053
:100070000EF002C00FF00E50151807E10F501618C1
:10008000D8A445EF80F047EF80F04AEF81F001C13E
:1000900010F0000E1C6E000E1B6E000E126E000E95
:1000A000116E800E0201006F35EF81F002C119F070
:1000B0001A6A19501A6E196A010103511926000EA5
:1000C0001A2204C11BF01C6A1B501C6E1B6A0551CE
:1000D0001B26000E1C22040E0201016F1B501B2464
:1000E000026F000E186E000E176EB4EF80F0D890FD
:1000F0001734D96E1834DA6E030ED926020EDA22BE
:10010000195017240A6E1A5018200B6ED8900A3610
:100110000B36BD0E0A24E16E000E0B20E26EE6CF18
:100120000CF0E5CF0DF00DC00CF00D6A0C50DF6E39
:10013000195017240A6E1A5018200B6ED8900A36E0
:100140000B36BD0E0A24D96E000E0B20DA6ED89045
:100150001734E16E1834E26E040EE126020EE2223C
:10016000DFCFE7FF174A182A1B50175C1C5018589E
:10017000D8A0BDEF80F0BFEF80F077EF80F0000EE9
:10018000016E020E026E1BC00AF01CC00BF0D8906C
:100190000A360B36030E0A24036E000E0B20046E83
:1001A000A4EC87F001C015F002C016F0D8901B3403
:1001B000D96E1C34DA6E030ED926020EDA2215C06F
:1001C000DFFF1650156E166AD8901B34D96E1C349A
:1001D000DA6E040ED926020EDA2215C0DFFF1B509C
:1001E000020DF350050F4AEF81F04AEF81F002C192
:1001F00019F01A6A19501A6E196A01010351192669
:10020000000E1A2204C111F0126A1150126E116A06
:1002100005511126000E122211C0C1F012C0C2F009
:10022000000E146E000E136E010E1324D96E010E13
:100230001420DA6E010E1324E16E020E1420E26E19
:10024000DFCFE7FF134A142A14BE30EF81F01450B9
:1002500009E1070E135CD8A030EF81F032EF81F096
:1002600014EF81F0080E4AEF81F010500A6E0B6A0D
:100270000B50000AD8B43FEF81F0F5EF80F00A5040
:10028000040AD8B456EF80F0020AD8B4F7EF80F031
:10029000F5EF80F012008AC0D9FF8BC0DAFFDECF05
:1002A000F6FFDDCFF7FF000EF86E0800F550250AC7
:1002B000D8A45DEF81F05FEF81F024EF82F08AC077
:1002C000D9FF8BC0DAFFDE2A000EDD22000E00010E
:1002D000C66F000EC56FC5C0CBF0C769C869000EF8
:1002E000956F000E946FA1EF81F0CB838AC0D9FF88
:1002F0008BC0DAFFDE2A000EDD22A1EF81F0000EB6
:10030000956F010E946FA1EF81F08AC0D9FF8BC069
:10031000DAFFDECFF6FFDDCFF7FF000EF86E080044
:10032000F5508E6F8F6B8F51000AD8B49AEF81F021
:100330007FEF81F08E51300AD8B475EF81F07FEFF6
:1003400081F094519511D8B4A8EF81F0AAEF81F013
:1003500085EF81F08AC066F08BC067F08CC068F0D2
:100360008DC069F068EC84F066C0C5F067C0C6F067
:100370000001C6BFC0EF81F0BEEF81F0C5EF81F094
:10038000CB81C56DC61FD8B0C62B8AC0D9FF8BC024
:10039000DAFFDECF96F0DDCF97F096C0F6FF97C07C
:1003A000F7FF000EF86E0800F550640AD8B4DBEFD2
:1003B00081F0DDEF81F0EDEF81F096C0F6FF97C0A0
:1003C000F7FF000EF86E0800F550690AD8A4EBEFAD
:1003D00081F0EDEF81F01BEF82F08CC0D9FF8DC072
:1003E000DAFFDFCF8EF0020EDE26DFCF8FF0000EB9
:1003F000DD228EC0D9FF8FC0DAFFDECF90F0DDCFD7
:1004000091F0010E96258E6F000E97218F6F8AC096
:10041000D9FF8BC0DAFF8EC0DEFF8FC0DDFF88C042
:100420007BF089C07CF090C07DF091C07EF03CEC08
:1004300082F03BEF82F08AC0D9FF8BC0DAFFDE2A60
:10044000000EDD223BEF82F08AC0D9FF8BC0DAFFBD
:10045000DECFF6FFDDCFF7FF000EF86E0800F55097
:100460000001606F616B88C062F089C063F0D1ECFD
:1004700084F01BEF82F0120000017EBF42EF82F099
:1004800045EF82F0010E46EF82F0000E856F855138
:10049000D8B44DEF82F04FEF82F053EF82F07D6DD4
:1004A0007E1FD8B07E2BC8BF58EF82F05AEF82F083
:1004B0005BEF82F0CB93C8BF62EF82F060EF82F017
:1004C00068EF82F0000E826F010E816F6CEF82F098
:1004D000C7C081F0C8C082F0C5C083F0C6C084F038
:1004E0008551D8B476EF82F078EF82F08FEF82F00A
:1004F0008307D8A084078551D8A481EF82F083EFC9
:1005000082F089EF82F0000E806F2B0E7F6F8DEFEF
:1005100082F0000E806F2D0E7F6F7FC085F0000E81
:10052000876F1F0E866F000EEB6FC8EF82F0860795
:10053000D8A08707CC0E8625D96E000E8721DA6EEB
:100540007DC060F07EC061F0000E636F0A0E626FC6
:1005500057EC86F060C066F061C067F084EC89F00B
:1005600000016651300FDF6E8107D8A08207830734
:10057000D8A084077DC060F07EC061F0000E636F7C
:100580000A0E626F37EC85F060C07DF061C07EF0CE
:10059000000187BFD4EF82F0875108E18605D8A01B
:1005A000D4EF82F0D6EF82F000EF83F07D517E1120
:1005B000D8A4DDEF82F0DFEF82F097EF82F082BF08
:1005C000ECEF82F0825106E18105D8B0EAEF82F0CB
:1005D000ECEF82F097EF82F084BFF7EF82F0845166
:1005E00008E18305D8A0F7EF82F0F9EF82F000EF81
:1005F00083F0CBB3FEEF82F000EF83F097EF82F051
:100600008551D8B406EF83F008EF83F013EF83F041
:100610008607D8A08707CC0E8625D96E000E8721C5
:10062000DA6E85C0DFFF7BC070F07CC071F0CC0E4D
:100630008625726F000E8721736F83C074F084C0AB
:1006400075F0B0EC86F01200000E0001816F000E14
:10065000826F000E836F000E846F000E806F000E9D
:100660007F6F060EA5EC89F0000160518127615172
:100670008223000E8323000E84237F4B802B80BFB8
:100680004BEF83F0805109E1080E7F5DD8A04BEF5E
:1006900083F04DEF83F031EF83F0030E7B6FD89042
:1006A00084338333823381337B2F4FEF83F081C0D8
:1006B00060F082C061F083C062F084C063F0E40E39
:1006C000646F0C0E656F000E666F000E676FE3ECD3
:1006D00087F060C06CF061C06DF062C06EF063C006
:1006E0006FF0FF0E0001706F030E716F000E726FDE
:1006F000000E736F08EC87F06CC081F06DC082F063
:100700006EC083F06FC084F081C060F082C061F081
:1007100083C062F084C063F0E80E0001646F030ED2
:10072000656F000E666F000E676FE3EC87F060C0C8
:1007300081F061C082F062C083F063C084F081C048
:100740006CF082C06DF083C06EF084C06FF0420E1A
:100750000001706F000E716F000E726F000E736FEC
:1007600008EC87F06CC081F06DC082F06EC083F041
:100770006FC084F081C06CF082C06DF083C06EF0F9
:1007800084C06FF0030E0001706F000E716F000ED9
:10079000726F000E736F08EC87F06CC081F06DC053
:1007A00082F06EC083F06FC084F0000179517B6FDE
:1007B0007A517C6F7D6B7E6B81517B5D82517C5960
:1007C00083517D5984517E59D8B0E9EF83F0EBEF26
:1007D00083F0F3EF83F07951815D796F7A5182591B
:1007E0007A6FF7EF83F0000E7A6F000E796F1200C8
:1007F0009FEC8AF0F28EF28C000E0001C46F800E26
:10080000C36F60EC89F0000E0001616F000E606F35
:100810005DEC8AF0F40E0001B46F800EE82EFED776
:10082000B42FFCD700F0000E00017A6F000E796F34
:1008300024EC83F079C0C9F07AC0CAF0FAEC85F0F4
:1008400079C0BDF07AC0BEF0C9C079F0CAC07AF0F4
:1008500024EC83F079C0BFF07AC0C0F0C1C060F072
:10086000C2C061F05DEC8AF0000E0001A06F030EC3
:10087000A16FF20EA26FFF0EA36FBDC0A4F0BEC0A9
:10088000A5F0CAEC88F0000E0001626F030E636FE2
:10089000000E646F05EC8AF0000E0001A06F030EDD
:1008A000A16FE50EA26FFF0EA36FBFC0A4F0C0C082
:1008B000A5F0CAEC88F0000E0001626F030E636FB2
:1008C000010E646F05EC8AF01EEF84F093EF00F0E8
:1008D000000E00016E6F000E6D6F66C0D9FF67C01D
:1008E000DAFFDECFF6FFDDCFF7FF000EF86E08006F
:1008F000F5502A0AD8A47FEF84F081EF84F0B6EF98
:1009000084F066C0D9FF67C0DAFFDE2A000EDD2260
:1009100068C0D9FF69C0DAFFDFCF6AF0020EDE26B9
:10092000DFCF6BF0000EDD226AC0D9FF6BC0DAFFAB
:10093000DECF6DF0DDCF6EF0CCEF84F06DC060F0F7
:100940006EC061F0000E636F0A0E626F8BEC8AF06E
:1009500000016C5160256D6F000E61216E6F66C0E5
:10096000D9FF67C0DAFFDE2A000EDD2266C0D9FF9C
:1009700067C0DAFFDECFF6FFDDCFF7FF000EF86EBF
:100980000800F550D00F6C6F090E6C65CAEF84F04B
:10099000CCEF84F09EEF84F06DC066F06EC067F01F
:1009A0001200000162516311D8B4D9EF84F0DBEF7B
:1009B00084F0E4EF84F062516311D8A4E2EF84F094
:1009C000E4EF84F0E9EF84F060511CEC8BF036EF3B
:1009D00085F020EE0AF06251D9266351DA22DE500A
:1009E000DE10D8B4F6EF84F0F8EF84F013EF85F062
:1009F00020EE0AF06251D9266351DA2210EE03F09C
:100A00006251E1266351E222DE50E65CE650800A44
:100A1000686FDE50800A6859D8B011EF85F013EF87
:100A200085F036EF85F020EE03F06251D926635150
:100A3000DA22DECF64F0DDCF65F062C0D9FF63C09B
:100A4000DAFFDECF66F0DDCF67F064516625D96E40
:100A500065516721DA6E60C0DFFF20EE03F062515E
:100A6000D9266351DA22DE2A000EDD221200000EA2
:100A70000001656F63BF41EF85F03FEF85F047EF01
:100A800085F0626D631FD8B0632B010E656F61BF87
:100A90004EEF85F04CEF85F054EF85F0606D611FEF
:100AA000D8B0612B010E651B000E676F000E666FDC
:100AB00062516311D8B45FEF85F061EF85F089EF83
:100AC00085F0010E646F69EF85F0D8906237633767
:100AD000642B63AF6EEF85F070EF85F065EF85F006
:100AE000D890663767376251605D63516159D8A00D
:100AF0007CEF85F07EEF85F083EF85F06251605FDB
:100B00006351615B6681D89063336233642F70EF09
:100B100085F06551D8B48FEF85F091EF85F095EFB2
:100B200085F0666D671FD8B0672B66C060F067C040
:100B300061F01200290E4424D96EDA6A000EDA221E
:100B4000DF6AABA4A6EF85F0A8EF85F0BDEF85F0D6
:100B5000290E4424D96EDA6A000EDA22DF8202D826
:100B6000BDEF85F00500FA6E0001F251FD6EF35104
:100B7000FE6EF451FF6EFA501200ABA2C2EF85F088
:100B8000C4EF85F0D9EF85F0290E4424D96EDA6AD6
:100B9000000EDA22DF8402D8D9EF85F00500FA6E64
:100BA0000001EF51FD6EF051FE6EF151FF6EFA50F3
:100BB0001200290E4424D96EDA6A000EDA22DF50C0
:100BC000D8B4E5EF85F0E7EF85F0F7EF85F002D8D0
:100BD000F5EF85F00500FA6E0001EC51FD6EED5168
:100BE000FE6EEE51FF6EFA501200F9EF85F076ECD2
:100BF0008AF01200000E00017C6F000E7D6F000E67
:100C00007E6F000E7F6F000E816F000E806F050EED
:100C1000A5EC89F0000160517C2761517D23000E15
:100C20007E23000E7F23804B812B81BF21EF86F036
:100C3000815109E1080E805DD8A021EF86F023EFF5
:100C400086F007EF86F0030E7B6FD8907F337E33FC
:100C50007D337C337B2F25EF86F07CC060F07DC038
:100C600061F07EC062F07FC063F0E40E646F0C0E32
:100C7000656F000E666F000E676FE3EC87F060C073
:100C80006CF061C06DF062C06EF063C06FF0FF0E7B
:100C90000001706F030E716F000E726F000E736FA4
:100CA00008EC87F06CC079F06DC07AF01200000E8D
:100CB0000001656F61BF61EF86F05FEF86F067EF5F
:100CC00086F0606D611FD8B0612B010E656F63BF48
:100CD0006EEF86F06CEF86F072EF86F0626D631F48
:100CE000D8B0632B62516311D8B479EF86F07BEFF3
:100CF00086F09FEF86F0010E646F83EF86F0D89048
:100D000062376337642B63AF88EF86F08AEF86F033
:100D10007FEF86F06251605D63516159D8A093EF17
:100D200086F095EF86F099EF86F06251605F63512F
:100D3000615BD89063336233642F8AEF86F065512C
:100D4000D8B4A5EF86F0A7EF86F0ABEF86F0606D24
:100D5000611FD8B0612B60C060F061C061F012000B
:100D60000001CBA1B6EF86F0B8EF86F0C2EF86F0B7
:100D700072C069F073C06AF070C06BF071C06CF043
:100D80003CEC89F0000175BFC8EF86F0CAEF86F031
:100D9000D0EF86F074C079F075C07AF0D4EF86F0A9
:100DA000000E7A6F000E796F000E786F000E776F6D
:100DB000E7EF86F0000E616F200E606F70C062F08A
:100DC00071C063F0D1EC84F00001774B782B79513E
:100DD000775D7851800A766F7A51800A7659D8A06B
:100DE000F4EF86F0F6EF86F0DAEF86F0CBB1FBEFAA
:100DF00086F0FDEF86F007EF87F072C069F073C0F0
:100E00006AF070C06BF071C06CF03CEC89F01200BD
:100E1000000E0001746F000E756F000E766F000EED
:100E2000776F7051711172117311D8B41AEF87F086
:100E30001CEF87F052EF87F0010E786F26EF87F0F6
:100E4000D8907037713772377337782B73AF2BEFB9
:100E500087F02DEF87F020EF87F0D8907437753743
:100E60007637773770516C5D71516D5972516E598B
:100E700073516F59D8A03FEF87F041EF87F04AEFE9
:100E800087F070516C5F71516D5B72516E5B735185
:100E90006F5B7481D8907333723371337033782FF2
:100EA0002DEF87F074C06CF075C06DF076C06EF0F9
:100EB00077C06FF012009D9A340E0001606F0B0E28
:100EC000616F010E626FE7EC8AF09D98CA0E000117
:100ED000606F130E616F010E626FE0EC8AF0080E16
:100EE0007E6ED00EAB6E650EAC6E8A0EAF6E020ECD
:100EF0007F6E3C0E0001606F160E616F010E626F17
:100F0000F5EC8AF0280E0001606F160E616F010E7D
:100F1000626FEEEC8AF02E0E0001606F160E616FAC
:100F2000010E626FFCEC8AF0000E416E000E476EFF
:100F3000000E466E080E456E000E446E000E436EA7
:100F4000000E426E9D8A120008680968CAEF87F099
:100F500001C0D9FF02C0DAFFDF500918076E014A4D
:100F6000022AE50E0724F66EF76AFE0EF722F86AEB
:100F7000000EF8220800F5500818096EE50E072447
:100F8000F66EF76AFD0EF722F86A000EF8220800E6
:100F9000F5CF08F00306D8A00406032806E10428CC
:100FA000D8A4D5EF87F0D7EF87F0A8EF87F00950E6
:100FB00008C005F0066A05C006F0056A0510016E56
:100FC0000650026E1200000E0001686F000E696F7D
:100FD000000E6A6F000E6B6F60A1F1EF87F0F3EF08
:100FE00087F0FBEF87F064516827655169236651EC
:100FF0006A2367516B23D890643765376637673744
:10100000D890633362336133603360516111621190
:101010006311D8A40EEF88F010EF88F0ECEF87F0A2
:1010200068C060F069C061F06AC062F06BC063F0D4
:1010300012000001616F8C9691CF60F00F0E0001DD
:1010400060176151F00B6011916E8C84140EE82EC4
:10105000FED700D08C9400D000D000D000016139C0
:10106000F00B616F91CF60F00F0E60176151F00BC4
:101070006011916E8C84140EE82EFED700D08C94F3
:10108000190E0001606F580EE82EFED7602FFCD7B6
:1010900000F012009AC09EF09BC09FF05FEF88F0B6
:1010A00098C088F099C089F09E0E00018A6F000EEA
:1010B0008B6F9CC08CF09DC08DF04BEC81F09EC07E
:1010C000F6FF9FC0F7FF000EF86E0800F55000090C
:1010D000D8A46DEF88F06FEF88F050EF88F0000E25
:1010E0000001996F000E986F1200016E4550D8B440
:1010F0007CEF88F07EEF88F076EF88F09DB883EF84
:1011000088F085EF88F089EF88F001C0ADFF9EEF91
:1011100088F09D98310E4724D96EDA6A000EDA22E3
:1011200001C0DFFF472A070E476499EF88F09BEF65
:1011300088F09DEF88F0000E476E45069D881200EE
:101140000001616F8C8691CF60F00F0E0001601777
:101150006151F00B6011916E8C8400D000D000D0F2
:101160008C9400D000D000D000016139F00B616F89
:1011700091CF60F00F0E60176151F00B6011916E0E
:101180008C8400D000D000D08C94D00EE82EFED7F6
:1011900000F01200A40E0001A66F000EA76FA0C001
:1011A000A8F0A1C0A9F0000EAC6F000EAB6F000E4E
:1011B000B36F000EB26FA80E986F000E996FA2C0A9
:1011C0009AF0A3C09BF0A60E9C6F000E9D6F4AEC98
:1011D00088F00001AB51A025D96EAC51A121DA6E87
:1011E000DF6A120002EE00F011EE00F0EE6AE55048
:1011F000E150FCE1E250FAE101EE00F011EE00F006
:10120000EE6AE550E150FCE1E250FAE100EEB5F0A3
:10121000370EEE6AE806FDE100EE29F01F0EEE6AD9
:10122000E806FDE1519051920001F8EF83F0056E60
:10123000000E076E000E066E29EF89F0000E0624E0
:10124000D96E020E0720DA6EDF5075EC88F0064A80
:10125000072A0550026E036A0250065C0750800A96
:10126000046E0350800A0458D8A039EF89F03BEF90
:1012700089F01EEF89F01200000E00016F6F000E62
:101280006E6F4FEF89F06DC060F0616B6BC062F004
:101290006CC063F0D1EC84F000016E4B6F2B6E518B
:1012A0006925D96E6F516A21DA6EDF506D6F6D510D
:1012B000D8A45DEF89F05FEF89F043EF89F0120069
:1012C00095968C9695948C949A500F0B9A6E070E67
:1012D0000001636F580E626F590EE82EFED7622F21
:1012E000FCD7632FFAD700D0020E19EC88F0280E35
:1012F00019EC88F0010E19EC88F00C0E19EC88F04E
:10130000060E19EC88F01200000167BF92EF89F019
:10131000675106E16605D8B090EF89F092EF89F049
:10132000A0EF89F066C068F067C069F0681F691FA8
:10133000684B692B68C066F069C067F0A4EF89F05C
:1013400066C066F067C067F012000001646F64C099
:1013500062F0000162476247C2506219C30B621912
:10136000C26EC280C282C2B2B8EF89F0BAEF89F011
:10137000B3EF89F0C4500001636F626BC350622504
:10138000606F000E6321616F1200000E8D6E000E03
:10139000916E000E8C6E000E896E000E8E6E000E29
:1013A0008A6E000E8F6E000E8B6E000E906E966829
:1013B00097683F0E926E986893689968BB0E946E1A
:1013C00095689A68F00EC1161200080E4560EBEFA2
:1013D00089F0EDEF89F003EF8AF0310E4624D96EE3
:1013E000DA6A000EDA22DF50AD6E462A070E466436
:1013F000FCEF89F0FEEF89F000EF8AF0000E466EF8
:10140000452A04EF8AF09D98120000016441E842E9
:10141000C00B800919EC88F062C0D9FF63C0DAFF05
:10142000DF50A0EC88F00001624B632B62C0D9FF53
:1014300063C0DAFFDF50D8A420EF8AF022EF8AF0F1
:101440000CEF8AF01200D59CD7689D0ED66ED65050
:10145000D7CF63F00001646B63C064F0636B63110A
:101460003C6E64513D6EF294F28A3A0E606F160E35
:10147000616F010E626FD9EC8AF0170ED56E120003
:10148000F2943D50D76E3CC0D6FF485049104A10E8
:10149000D8B44DEF8AF04FEF8AF05CEF8AF002D8B3
:1014A0005CEF8AF00500FA6E4850FD6E4950FE6E02
:1014B0004A50FF6EFA501200120060C062F061C024
:1014C00063F00001D89063336233D89063336233A2
:1014D0006251BE6E60C062F0030E6217623BF00E96
:1014E0006217BD50CF0B6211BD6E1200B50E4424C1
:1014F000D96EDA6A000EDA22AECFDFFF442A070E79
:10150000446485EF8AF087EF8AF089EF8AF0000E55
:10151000446E422A1200000160516203F3CF64F06E
:10152000F4CF65F060516303F350652761516203A6
:10153000F350652764C060F065C061F012001AECDA
:101540008BF0C5EC89F00AEC8BF0C7EC8AF0BCECB0
:101550008AF0D2EC8AF023EC8AF05BEC87F0120080
:10156000016ED58E000E3F24D96EDA6A010EDA22A2
:1015700001C0DFFF3F2A12003C0EBD6E000EB66EAA
:10158000800E796E000EBF6E7F0EBE6E1200000ED2
:10159000C16E920EC06E000EC36E000EC46E010EC0
:1015A000C26E1200CB68000ECC6E9E92040ECA6E04
:1015B000120060C048F061C049F062C04AF01200F9
:1015C00060C04EF061C04FF062C050F0120060C0C9
:1015D0004BF061C04CF062C04DF0120060C0EFF003
:1015E00061C0F0F062C0F1F0120060C0F2F061C0C2
:1015F000F3F062C0F4F0120060C0ECF061C0EDF0F6
:1016000062C0EEF0120000EC80F017EC89F0000EE2
:101610003F6E1200020ED36E000E9B6E12003D5004
:10162000D76E3CC0D6FF1200AB98AB88120076ECA8
:0E1630008AF01200D09E12001200120012006A
:06FFF800A0F4C4FFF8F7BD
:00000001FF
