:040000008BEF00F092
:100008004282FACF17F0FBCF18F0E1CF19F0E2CF18
:100018001AF0D9CF1BF0DACF1CF0F6CF1DF0F7CFCE
:100028001EF0F8CF1FF0F5CF20F0F2AA1EEF00F077
:1000380020EF00F02EEF00F0F2A425EF00F027EFFC
:1000480000F02EEF00F0C9EC89F0D59E8CEC8AF018
:1000580075EF00F0F2AC33EF00F035EF00F075EF1C
:1000680000F09DA83AEF00F03CEF00F052EF00F0EE
:100078009EA841EF00F043EF00F052EF00F002D8E5
:1000880050EF00F00500FA6E3F50FD6E4050FE6ED6
:100098004150FF6EFA50120075EF00F09DAA57EF1D
:1000A80000F059EF00F075EF00F09EAA5EEF00F047
:1000B80060EF00F075EF00F002D86DEF00F005007A
:1000C800FA6E3C50FD6E3D50FE6E3E50FF6EFA508B
:1000D8001200AE5039EC8AF098EC8AF0D58E75EFA4
:1000E80000F020C0F5FF1FC0F8FF1EC0F7FF1DC0BD
:1000F800F6FF1CC0DAFF1BC0D9FF1AC0E2FF19C007
:10010800E1FF18C0FBFF17C0FAFF429211007BEF16
:0201180088F06D
:10FDE4000000C0C101C30302C2C60607C705C5C4DB
:10FDF40004CC0C0DCD0FCFCE0E0ACACB0BC909080B
:10FE0400C8D81819D91BDBDA1A1EDEDF1FDD1D1C4A
:10FE1400DC14D4D515D71716D6D21213D311D1D0DA
:10FE240010F03031F133F3F23236F6F737F535347A
:10FE3400F43CFCFD3DFF3F3EFEFA3A3BFB39F9F84A
:10FE44003828E8E929EB2B2AEAEE2E2FEF2DEDECEA
:10FE54002CE42425E527E7E62622E2E323E121201A
:10FE6400E0A06061A163A3A26266A6A767A565641A
:10FE7400A46CACAD6DAF6F6EAEAA6A6BAB69A9A88A
:10FE84006878B8B979BB7B7ABABE7E7FBF7DBDBCCA
:10FE94007CB47475B577B7B67672B2B373B171705A
:10FEA400B0509091519353529296565797559594BA
:10FEB400549C5C5D9D5F9F9E5E5A9A9B5B995958CA
:10FEC40098884849894B8B8A4A4E8E8F4F8D4D4C6A
:10FED4008C4484854587474686824243834181809A
:10FEE4004000C1814001C0804101C0804100C18106
:10FEF4004001C0804100C1814000C1814001C080F7
:10FF04004101C0804100C1814000C1814001C080E5
:10FF14004100C1814001C0804101C0804100C181D4
:10FF24004001C0804100C1814000C1814001C080C6
:10FF34004100C1814001C0804101C0804100C181B4
:10FF44004000C1814001C0804101C0804100C181A5
:10FF54004001C0804100C1814000C1814001C08096
:10FF64004101C0804100C1814000C1814001C08085
:10FF74004100C1814001C0804101C0804100C18174
:10FF84004000C1814001C0804101C0804100C18165
:10FF94004001C0804100C1814000C1814001C08056
:10FFA4004100C1814001C0804101C0804100C18144
:10FFB4004001C0804100C1814000C1814001C08036
:10FFC4004101C0804100C1814000C1814001C08025
:10FFD4004100C1814001C0804101C0804100C18114
:10FFE4004049203D20253033645B75415D00552038
:0CFFF4003D20253033645B6D565D00003D
:020000040001F9
:100000008AC0D9FF8BC0DAFFDECFF6FFDDCFF7FF66
:10001000000EF86E0800F550250AD8A412EF80F003
:1000200014EF80F0D9EF80F08AC0D9FF8BC0DAFFDF
:10003000DE2A000EDD22000E0001CE6F000ECD6F15
:10004000CDC02EF0CF69D069000E956F000E946F71
:1000500056EF80F02E828AC0D9FF8BC0DAFFDE2AED
:10006000000EDD2256EF80F0000E956F010E946FAA
:1000700056EF80F08AC0D9FF8BC0DAFFDECFF6FFE3
:10008000DDCFF7FF000EF86E0800F5508E6F8F6B16
:100090008F51000AD8B44FEF80F034EF80F08E51CA
:1000A000300AD8B42AEF80F034EF80F094519511E3
:1000B000D8B45DEF80F05FEF80F03AEF80F08AC057
:1000C00066F08BC067F08CC068F08DC069F0F2EC10
:1000D00083F066C0CDF067C0CEF00001CEBF75EFF3
:1000E00080F073EF80F07AEF80F02E80CD6DCE1F20
:1000F000D8B0CE2B8AC0D9FF8BC0DAFFDECF96F006
:10010000DDCF97F096C0F6FF97C0F7FF000EF86EB0
:100110000800F550640AD8B490EF80F092EF80F0B8
:10012000A2EF80F096C0F6FF97C0F7FF000EF86EC2
:100130000800F550690AD8A4A0EF80F0A2EF80F083
:10014000D0EF80F08CC0D9FF8DC0DAFFDFCF8EF00A
:10015000020EDE26DFCF8FF0000EDD228EC0D9FF2B
:100160008FC0DAFFDECF90F0DDCF91F0010E962543
:100170008E6F000E97218F6F8AC0D9FF8BC0DAFF78
:100180008EC0DEFF8FC0DDFF88C07BF089C07CF0B1
:1001900090C07DF091C07EF0F1EC80F0F0EF80F047
:1001A0008AC0D9FF8BC0DAFFDE2A000EDD22F0EF15
:1001B00080F08AC0D9FF8BC0DAFFDECFF6FFDDCF3B
:1001C000F7FF000EF86E0800F5500001606F616BDC
:1001D00088C062F089C063F05BEC84F0D0EF80F0FF
:1001E000120000017EBFF7EF80F0FAEF80F0010E01
:1001F000FBEF80F0000E856F8551D8B402EF81F0DF
:1002000004EF81F008EF81F07D6D7E1FD8B07E2B6A
:10021000D0BF0DEF81F00FEF81F010EF81F02E9243
:10022000D0BF17EF81F015EF81F01DEF81F0000EC8
:10023000826F010E816F21EF81F0CFC081F0D0C0BD
:1002400082F0CDC083F0CEC084F08551D8B42BEFBE
:1002500081F02DEF81F044EF81F08307D8A084076F
:100260008551D8A436EF81F038EF81F03EEF81F070
:10027000000E806F2B0E7F6F42EF81F0000E806FBB
:100280002D0E7F6F7FC085F0000E876F1F0E866F6B
:10029000000EF26F7DEF81F08607D8A08707D30E9E
:1002A0008625D96E000E8721DA6E7DC060F07EC093
:1002B00061F0000E636F0A0E626FE1EC85F060C0C2
:1002C00066F061C067F00DEC89F000016651300FF7
:1002D000DF6E8107D8A082078307D8A084077DC07E
:1002E00060F07EC061F0000E636F0A0E626FC1ECB9
:1002F00084F060C07DF061C07EF0000187BF89EFAF
:1003000081F0875108E18605D8A089EF81F08BEF55
:1003100081F0B5EF81F07D517E11D8A492EF81F08C
:1003200094EF81F04CEF81F082BFA1EF81F0825118
:1003300006E18105D8B09FEF81F0A1EF81F04CEF8D
:1003400081F084BFACEF81F0845108E18305D8A02F
:10035000ACEF81F0AEEF81F0B5EF81F02EB2B3EFEC
:1003600081F0B5EF81F04CEF81F08551D8B4BBEF4F
:1003700081F0BDEF81F0C8EF81F08607D8A0870734
:10038000D30E8625D96E000E8721DA6E85C0DFFF79
:100390007BC070F07CC071F0D30E8625726F000EAA
:1003A0008721736F83C074F084C075F03AEC86F0D7
:1003B0001200010100510A6E0B6A0001CB510A18AC
:1003C00007E1CC510B18D8A4E8EF81F0EAEF81F0F7
:1003D000AEEF82F0FF0E3024D96EDA6A000EDA2218
:1003E000DF500A6E0A50136E146A1350146E136AAB
:1003F000FE0E3024D96EDA6A000EDA22DF500A6E61
:100400000A501326000E1422000E016E010E026E19
:10041000FE0E3024036E046AFF0E04222DEC87F0DA
:1004200001C00CF002C00DF00C50131807E10D5084
:100430001418D8A41EEF82F020EF82F0AEEF82F005
:1004400001C10EF0000E166E000E156E800E020138
:10045000006F99EF82F002C10FF0106A0F50106E1A
:100460000F6A010103510F26000E102204C115F07E
:10047000166A1550166E156A05511526000E1622BD
:10048000040E0201016F15501524026F000E126E4A
:10049000000E116E65EF82F00F5011240A6E10509D
:1004A00012200B6ED8900A360B36C30E0A24D96E72
:1004B000000E0B20DA6E030E1124E16E020E1220E4
:1004C000E26EDFCFE7FF114A122A1550115C165079
:1004D0001258D8A06EEF82F070EF82F04CEF82F0ED
:1004E000000E016E020E026E030E1524036E000E46
:1004F0001620046E2DEC87F001C013F002C014F03A
:10050000030E1524D96E020E1620DA6E13C0DFFF1B
:100510001450136E146A040E1524D96E020E1620A0
:10052000DA6E13C0DFFF1550050FAEEF82F0AEEFAD
:1005300082F00E500A6E0B6A0B50000AD8B4A3EF7B
:1005400082F097EF82F00A50040AD8B42BEF82F0C1
:10055000020AD8B497EF82F097EF82F01200000EF3
:100560000001816F000E826F000E836F000E846F9A
:10057000000E806F000E7F6F060E2EEC89F00001DA
:100580006051812761518223000E8323000E842352
:100590007F4B802B80BFD6EF82F0805109E1080E9F
:1005A0007F5DD8A0D6EF82F0D8EF82F0BCEF82F06A
:1005B000030E7B6FD89084338333823381337B2F58
:1005C000DAEF82F081C060F082C061F083C062F037
:1005D00084C063F0E40E646F0C0E656F000E666FEE
:1005E000000E676F6CEC87F060C06CF061C06DF05E
:1005F00062C06EF063C06FF0FF0E0001706F030EFB
:10060000716F000E726F000E736F91EC86F06CC00C
:1006100081F06DC082F06EC083F06FC084F081C045
:1006200060F082C061F083C062F084C063F0E80EC5
:100630000001646F030E656F000E666F000E676F3A
:100640006CEC87F060C081F061C082F062C083F022
:1006500063C084F081C06CF082C06DF083C06EF026
:1006600084C06FF0420E0001706F000E716F000EBB
:10067000726F000E736F91EC86F06CC081F06DC0EC
:1006800082F06EC083F06FC084F081C06CF082C0D5
:100690006DF083C06EF084C06FF0030E0001706FC8
:1006A000000E716F000E726F000E736F91EC86F08A
:1006B0006CC081F06DC082F06EC083F06FC084F0BA
:1006C000000179517B6F7A517C6F7D6B7E6B81511C
:1006D0007B5D82517C5983517D5984517E59D8B0BC
:1006E00074EF83F076EF83F07EEF83F07951815DD4
:1006F000796F7A5182597A6F82EF83F0000E7A6FA8
:10070000000E796F120028EC8AF0F28EF28C000E47
:100710000001CC6F800ECB6F000E616F000E606F1A
:10072000E6EC89F0E9EC88F0520E0001B46F290E76
:10073000E82EFED7B42FFCD700D0000E00017A6F50
:10074000000E796FAFEC82F079C0D1F07AC0D2F0B0
:1007500084EC85F079C0C5F07AC0C6F0D1C079F0DC
:10076000D2C07AF0AFEC82F079C0C7F07AC0C8F09E
:10077000C9C060F0CAC061F0E6EC89F0000E00016B
:10078000A06F030EA16FF20EA26FFF0EA36FC5C084
:10079000A4F0C6C0A5F053EC88F0000E0001626F13
:1007A000030E636F000E646F8EEC89F0000E000183
:1007B000A06F030EA16FE50EA26FFF0EA36FC7C05F
:1007C000A4F0C8C0A5F053EC88F0000E0001626FE1
:1007D000030E636F010E646F8EEC89F0A8EF83F057
:1007E0008BEF00F0000E00016E6F000E6D6F66C0A3
:1007F000D9FF67C0DAFFDECFF6FFDDCFF7FF000ECF
:10080000F86E0800F5502A0AD8A409EF84F00BEF1F
:1008100084F040EF84F066C0D9FF67C0DAFFDE2ABB
:10082000000EDD2268C0D9FF69C0DAFFDFCF6AF0B1
:10083000020EDE26DFCF6BF0000EDD226AC0D9FF8C
:100840006BC0DAFFDECF6DF0DDCF6EF056EF84F0D7
:100850006DC060F06EC061F0000E636F0A0E626FD3
:1008600014EC8AF000016C5160256D6F000E61215F
:100870006E6F66C0D9FF67C0DAFFDE2A000EDD2288
:1008800066C0D9FF67C0DAFFDECFF6FFDDCFF7FF26
:10089000000EF86E0800F550D00F6C6F090E6C65F5
:1008A00054EF84F056EF84F028EF84F06DC066F0CA
:1008B0006EC067F01200000162516311D8B463EF9B
:1008C00084F065EF84F06EEF84F062516311D8A478
:1008D0006CEF84F06EEF84F073EF84F06051A5EC60
:1008E0008AF0C0EF84F020EE0AF06251D9266351FD
:1008F000DA22DE50DE10D8B480EF84F082EF84F08C
:100900009DEF84F020EE0AF06251D9266351DA227D
:1009100010EE03F06251E1266351E222DE50E65C04
:10092000E650800A686FDE50800A6859D8B09BEFA5
:1009300084F09DEF84F0C0EF84F020EE03F062516C
:10094000D9266351DA22DECF64F0DDCF65F062C0D4
:10095000D9FF63C0DAFFDECF66F0DDCF67F0645108
:100960006625D96E65516721DA6E60C0DFFF20EE23
:1009700003F06251D9266351DA22DE2A000EDD220D
:100980001200000E0001656F63BFCBEF84F0C9EF6A
:1009900084F0D1EF84F0626D631FD8B0632B010E39
:1009A000656F61BFD8EF84F0D6EF84F0DEEF84F09E
:1009B000606D611FD8B0612B010E651B000E676F63
:1009C000000E666F62516311D8B4E9EF84F0EBEF6B
:1009D00084F013EF85F0010E646FF3EF84F0D8908C
:1009E00062376337642B63AFF8EF84F0FAEF84F07B
:1009F000EFEF84F0D890663767376251605D6351DE
:100A00006159D8A006EF85F008EF85F00DEF85F06D
:100A10006251605F6351615B6681D890633362337A
:100A2000642FFAEF84F06551D8B419EF85F01BEF0D
:100A300085F01FEF85F0666D671FD8B0672B66C025
:100A400060F067C061F01200210E3524D96EDA6AB9
:100A5000000EDA22DF6AABA430EF85F032EF85F0CA
:100A600047EF85F0210E3524D96EDA6A000EDA22BE
:100A7000DF8202D847EF85F00500FA6E0001F951D8
:100A8000FD6EFA51FE6EFB51FF6EFA501200ABA2E2
:100A90004CEF85F04EEF85F063EF85F0210E3524A5
:100AA000D96EDA6A000EDA22DF8402D863EF85F0AD
:100AB0000500FA6E0001F651FD6EF751FE6EF85119
:100AC000FF6EFA501200210E3524D96EDA6A000E3C
:100AD000DA22DF50D8B46FEF85F071EF85F081EF47
:100AE00085F002D87FEF85F00500FA6E0001F35122
:100AF000FD6EF451FE6EF551FF6EFA50120083EF59
:100B000085F0FFEC89F01200000E00017C6F000EF2
:100B10007D6F000E7E6F000E7F6F000E816F000EE6
:100B2000806F050E2EEC89F0000160517C27615129
:100B30007D23000E7E23000E7F23804B812B81BFFF
:100B4000ABEF85F0815109E1080E805DD8A0ABEFD5
:100B500085F0ADEF85F091EF85F0030E7B6FD890B7
:100B60007F337E337D337C337B2FAFEF85F07CC0CA
:100B700060F07DC061F07EC062F07FC063F0E40E83
:100B8000646F0C0E656F000E666F000E676F6CEC85
:100B900087F060C06CF061C06DF062C06EF063C041
:100BA0006FF0FF0E0001706F030E716F000E726F19
:100BB000000E736F91EC86F06CC079F06DC07AF026
:100BC0001200000E0001656F61BFEBEF85F0E9EFE9
:100BD00085F0F1EF85F0606D611FD8B0612B010EDB
:100BE000656F63BFF8EF85F0F6EF85F0FCEF85F0F9
:100BF000626D631FD8B0632B62516311D8B403EFE9
:100C000086F005EF86F029EF86F0010E646F0DEF98
:100C100086F0D89062376337642B63AF12EF86F0AB
:100C200014EF86F009EF86F06251605D63516159FF
:100C3000D8A01DEF86F01FEF86F023EF86F06251FB
:100C4000605F6351615BD89063336233642F14EF4C
:100C500086F06551D8B42FEF86F031EF86F035EF8E
:100C600086F0606D611FD8B0612B60C060F061C01C
:100C700061F012002EA03FEF86F041EF86F04BEFBF
:100C800086F072C069F073C06AF070C06BF071C01A
:100C90006CF0C5EC88F0000175BF51EF86F053EFA2
:100CA00086F059EF86F074C079F075C07AF05DEF88
:100CB00086F0000E7A6F000E796F000E786F000ECE
:100CC000776F70EF86F0000E616F200E606F70C05E
:100CD00062F071C063F05BEC84F00001774B782B1D
:100CE0007951775D7851800A766F7A51800A76590A
:100CF000D8A07DEF86F07FEF86F063EF86F02EB010
:100D000084EF86F086EF86F090EF86F072C069F08F
:100D100073C06AF070C06BF071C06CF0C5EC88F005
:100D20001200000E0001746F000E756F000E766FDA
:100D3000000E776F7051711172117311D8B4A3EF57
:100D400086F0A5EF86F0DBEF86F0010E786FAFEF4F
:100D500086F0D8907037713772377337782B73AF4E
:100D6000B4EF86F0B6EF86F0A9EF86F0D89074372E
:100D700075377637773770516C5D71516D59725197
:100D80006E5973516F59D8A0C8EF86F0CAEF86F03C
:100D9000D3EF86F070516C5F71516D5B72516E5B79
:100DA00073516F5B7481D8907333723371337033C6
:100DB000782FB6EF86F074C06CF075C06DF076C019
:100DC0006EF077C06FF012009D9A480E0001606FC0
:100DD0000A0E616F010E626F70EC8AF09D98DC0E56
:100DE0000001606F120E616F010E626F69EC8AF094
:100DF000080E7E6ED00EAB6E650EAC6E8A0EAF6EB8
:100E0000020E7F6E4E0E0001606F150E616F010EB7
:100E1000626F7EEC8AF03A0E0001606F150E616F12
:100E2000010E626F77EC8AF0400E0001606F150EC4
:100E3000616F010E626F85EC8AF0000E326E000E5B
:100E4000386E000E376E080E366E000E356E000ED0
:100E5000346E000E336E9D8A12000868096853EFE5
:100E600087F001C0D9FF02C0DAFFDF500918076E12
:100E7000014A022AE50E0724F66EF76AFE0EF722F3
:100E8000F86A000EF8220800F5500818096EE50E01
:100E90000724F66EF76AFD0EF722F86A000EF822B4
:100EA0000800F5CF08F00306D8A00406032806E1E1
:100EB0000428D8A45EEF87F060EF87F031EF87F069
:100EC000095008C005F0066A05C006F0056A05105D
:100ED000016E0650026E1200000E0001686F000ED7
:100EE000696F000E6A6F000E6B6F60A17AEF87F07A
:100EF0007CEF87F084EF87F06451682765516923A0
:100F000066516A2367516B23D8906437653766371B
:100F10006737D89063336233613360336051611156
:100F200062116311D8A497EF87F099EF87F075EFFE
:100F300087F068C060F069C061F06AC062F06BC0A1
:100F400063F012000001616F8C9691CF60F00F0E7C
:100F5000000160176151F00B6011916E8C84140ECA
:100F6000E82EFED700D08C9400D000D000D0000135
:100F70006139F00B616F91CF60F00F0E6017615116
:100F8000F00B6011916E8C84140EE82EFED700D009
:100F90008C94190E0001606F580EE82EFED7602F5A
:100FA000FCD700F012009AC09EF09BC09FF0E8EFC3
:100FB00087F098C088F099C089F09E0E00018A6F72
:100FC000000E8B6F9CC08CF09DC08DF000EC80F00B
:100FD0009EC0F6FF9FC0F7FF000EF86E0800F550A8
:100FE0000009D8A4F6EF87F0F8EF87F0D9EF87F083
:100FF000000E0001996F000E986F1200016E3650BE
:10100000D8B405EF88F007EF88F0FFEF87F09DB8C0
:101010000CEF88F00EEF88F012EF88F001C0ADFF02
:1010200027EF88F09D98BD0E3824D96EDA6A000E3D
:10103000DA2201C0DFFF382A070E386422EF88F079
:1010400024EF88F026EF88F0000E386E36069D8873
:1010500012000001616F8C8691CF60F00F0E0001CD
:1010600060176151F00B6011916E8C8400D000D03C
:1010700000D08C9400D000D000D000016139F00B7A
:10108000616F91CF60F00F0E60176151F00B60112E
:10109000916E8C8400D000D000D08C94D00EE82EBD
:1010A000FED700F01200A40E0001A66F000EA76F7D
:1010B000A0C0A8F0A1C0A9F0000EAC6F000EAB6FED
:1010C000000EB36F000EB26FA80E986F000E996FEE
:1010D000A2C09AF0A3C09BF0A60E9C6F000E9D6F5D
:1010E000D3EC87F00001AB51A025D96EAC51A12102
:1010F000DA6EDF6A120002EE00F011EE00F0EE6A26
:10110000E550E150FCE1E250FAE101EE00F011EEB1
:1011100000F0EE6AE550E150FCE1E250FAE100EE49
:10112000B5F03E0EEE6AE806FDE100EE21F0180E85
:10113000EE6AE806FDE142904292000183EF83F0FF
:10114000056E000E076E000E066EB2EF88F0000E00
:101150000624D96E020E0720DA6EDF50FEEC87F00F
:10116000064A072A0550026E036A0250065C0750C1
:10117000800A046E0350800A0458D8A0C2EF88F099
:10118000C4EF88F0A7EF88F01200000E00016F6F27
:10119000000E6E6FD8EF88F06DC060F0616B6BC0B1
:1011A00062F06CC063F05BEC84F000016E4B6F2B5F
:1011B0006E516925D96E6F516A21DA6EDF506D6FFD
:1011C0006D51D8A4E6EF88F0E8EF88F0CCEF88F016
:1011D000120095968C9695948C949A500F0B9A6E5B
:1011E000070E0001636F580E626F590EE82EFED78E
:1011F000622FFCD7632FFAD700D0020EA2EC87F043
:10120000280EA2EC87F0010EA2EC87F00C0EA2ECE7
:1012100087F0060EA2EC87F01200000167BF1BEFFB
:1012200089F0675106E16605D8B019EF89F01BEF28
:1012300089F029EF89F066C068F067C069F0681F1F
:10124000691F684B692B68C066F069C067F02DEFB5
:1012500089F066C066F067C067F012000001646F35
:1012600064C062F0000162476247C2506219C30B5A
:101270006219C26EC280C282C2B241EF89F043EFEE
:1012800089F03CEF89F0C4500001636F626BC3507A
:101290006225606F000E6321616F1200000E8D6E7B
:1012A000000E916E000E8C6E000E896E000E8E6E1A
:1012B000000E8A6E000E8F6E000E8B6E000E906E0A
:1012C000966897683F0E926E986893689968BB0E0F
:1012D000946E95689A68F00EC1161200080E36607A
:1012E00074EF89F076EF89F08CEF89F0BD0E37242A
:1012F000D96EDA6A000EDA22DF50AD6E372A070E99
:10130000376485EF89F087EF89F089EF89F0000E67
:10131000376E362A8DEF89F09D98120000016441E6
:10132000E842C00B8009A2EC87F062C0D9FF63C01D
:10133000DAFFDF5029EC88F00001624B632B62C0BA
:10134000D9FF63C0DAFFDF50D8A4A9EF89F0ABEF73
:1013500089F095EF89F01200D59CD7689D0ED66E66
:10136000D650D7CF63F00001646B63C064F0636B49
:1013700063112C6E64512D6EF294F28A4C0E606FE4
:10138000150E616F010E626F62EC8AF0170ED56E5A
:101390001200F2942D50D76E2CC0D6FF39503A105F
:1013A0003B10D8B4D6EF89F0D8EF89F0E5EF89F09B
:1013B00002D8E5EF89F00500FA6E3950FD6E3A501B
:1013C000FE6E3B50FF6EFA501200120060C062F0D9
:1013D00061C063F00001D89063336233D890633307
:1013E00062336251BE6E60C062F0030E6217623BF0
:1013F000F00E6217BD50CF0B6211BD6E1200B50E1C
:101400003524D96EDA6A000EDA22AECFDFFF352A34
:10141000070E35640EEF8AF010EF8AF012EF8AF0B3
:10142000000E356E332A1200000160516203F3CFC3
:1014300064F0F4CF65F060516303F35065276151A8
:101440006203F350652764C060F065C061F012006C
:10145000A3EC8AF04EEC89F093EC8AF050EC8AF021
:1014600045EC8AF05BEC8AF0ACEC89F0E4EC86F0B9
:101470001200016ED58E000E3024D96EDA6A010E8C
:10148000DA2201C0DFFF302A12003C0EBD6E000ED2
:10149000B66E800E796E000EBF6E7F0EBE6E1200AD
:1014A000000EC16E920EC06E000EC36E000EC46EB2
:1014B000010EC26E1200CB68000ECC6E9E92040E1E
:1014C000CA6E120060C039F061C03AF062C03BF0F1
:1014D000120060C03FF061C040F062C041F01200F5
:1014E00060C03CF061C03DF062C03EF0120060C0E0
:1014F000F6F061C0F7F062C0F8F0120060C0F9F0D9
:1015000061C0FAF062C0FBF0120060C0F3F061C08D
:10151000F4F062C0F5F01200D9EC81F0A0EC88F094
:10152000000E306E1200020ED36E000E9B6E120083
:101530002D50D76E2CC0D6FF1200AB98AB8812008E
:10154000FFEC89F01200D09E12001200120012006F
:06FFF800A0F4C4FFF8F7BD
:00000001FF
