:040000008CEF00F091
:100008004A82FACF1BF0FBCF1CF0E1CF1DF0E2CF04
:100018001EF0D9CF1FF0DACF20F0F6CF21F0F7CFBE
:1000280022F0F8CF23F0F5CF24F0F2AA1EEF00F06B
:1000380020EF00F02EEF00F0F2A425EF00F027EFFC
:1000480000F02EEF00F002EC8AF0D59EC5EC8AF0A5
:1000580076EF00F0F2AC33EF00F035EF00F076EF1A
:1000680000F09DA83AEF00F03CEF00F052EF00F0EE
:100078009EA841EF00F043EF00F052EF00F002D8E5
:1000880050EF00F00500FA6E4750FD6E4850FE6EC6
:100098004950FF6EFA50120076EF00F09DAA57EF14
:1000A80000F059EF00F076EF00F09EAA5EEF00F046
:1000B80060EF00F076EF00F002D86EEF00F0050078
:1000C800FA6E0001F551FD6EF651FE6EF751FF6EA6
:1000D800FA501200AE5072EC8AF0D1EC8AF0D58E4C
:1000E80076EF00F024C0F5FF23C0F8FF22C0F7FF29
:1000F80021C0F6FF20C0DAFF1FC0D9FF1EC0E2FFF3
:100108001DC0E1FF1CC0FBFF1BC0FAFF4A92110093
:04011800B4EF88F0C8
:10FDE4000000C0C101C30302C2C60607C705C5C4DB
:10FDF40004CC0C0DCD0FCFCE0E0ACACB0BC909080B
:10FE0400C8D81819D91BDBDA1A1EDEDF1FDD1D1C4A
:10FE1400DC14D4D515D71716D6D21213D311D1D0DA
:10FE240010F03031F133F3F23236F6F737F535347A
:10FE3400F43CFCFD3DFF3F3EFEFA3A3BFB39F9F84A
:10FE44003828E8E929EB2B2AEAEE2E2FEF2DEDECEA
:10FE54002CE42425E527E7E62622E2E323E121201A
:10FE6400E0A06061A163A3A26266A6A767A565641A
:10FE7400A46CACAD6DAF6F6EAEAA6A6BAB69A9A88A
:10FE84006878B8B979BB7B7ABABE7E7FBF7DBDBCCA
:10FE94007CB47475B577B7B67672B2B373B171705A
:10FEA400B0509091519353529296565797559594BA
:10FEB400549C5C5D9D5F9F9E5E5A9A9B5B995958CA
:10FEC40098884849894B8B8A4A4E8E8F4F8D4D4C6A
:10FED4008C4484854587474686824243834181809A
:10FEE4004000C1814001C0804101C0804100C18106
:10FEF4004001C0804100C1814000C1814001C080F7
:10FF04004101C0804100C1814000C1814001C080E5
:10FF14004100C1814001C0804101C0804100C181D4
:10FF24004001C0804100C1814000C1814001C080C6
:10FF34004100C1814001C0804101C0804100C181B4
:10FF44004000C1814001C0804101C0804100C181A5
:10FF54004001C0804100C1814000C1814001C08096
:10FF64004101C0804100C1814000C1814001C08085
:10FF74004100C1814001C0804101C0804100C18174
:10FF84004000C1814001C0804101C0804100C18165
:10FF94004001C0804100C1814000C1814001C08056
:10FFA4004100C1814001C0804101C0804100C18144
:10FFB4004001C0804100C1814000C1814001C08036
:10FFC4004101C0804100C1814000C1814001C08025
:10FFD4004100C1814001C0804101C0804100C18114
:10FFE4004049203D20253033645B75415D00552038
:0CFFF4003D20253033645B6D565D00003D
:020000040001F9
:10000000010100510A6E0B6A0001C3510A1807E191
:10001000C4510B18D8A40FEF80F011EF80F017EF48
:1000200081F0FF0E3B24D96EDA6A000EDA22DF502F
:100030000A6E0A50176E186A1750186E176AFE0E6D
:100040003B24D96EDA6A000EDA22DF500A6E0A50BB
:100050001726000E1822000E016E010E026EFE0E13
:100060003B24036E046AFF0E042266EC87F001C095
:100070000CF002C00DF00C50171807E10D501818C5
:10008000D8A445EF80F047EF80F017EF81F001C171
:100090000EF0000E1A6E000E196E000E106E000E9D
:1000A0000F6E800E0201006F02EF81F002C115F0A9
:1000B000166A1550166E156A010103511526000EB9
:1000C000162204C119F01A6A19501A6E196A0551DC
:1000D0001926000E1A22040E0201016F195019246C
:1000E000026F000E126E000E116E90EF80F0155030
:1000F00011240A6E165012200B6ED8900A360B3659
:10010000BB0E0A24D96E000E0B20DA6E030E1124EA
:10011000E16E020E1220E26EDFCFE7FF114A122AD3
:100120001950115C1A501258D8A099EF80F09BEF2B
:1001300080F077EF80F0000E016E020E026E030E6B
:100140001924036E000E1A20046E66EC87F001C0BD
:1001500017F002C018F0030E1924D96E020E1A20EF
:10016000DA6E17C0DFFF1850176E186A040E1924D4
:10017000D96E020E1A20DA6E17C0DFFF1950050F74
:1001800017EF81F017EF81F002C115F0166A1550D4
:10019000166E156A010103511526000E162204C1C0
:1001A0000FF0106A0F50106E0F6A05510F26000EE7
:1001B00010220FC0C1F010C0C2F0000E146E000E6D
:1001C000136E010E1324D96E010E1420DA6E010E87
:1001D0001324E16E020E1420E26EDFCFE7FF134A14
:1001E000142A14BEFDEF80F0145009E1070E135CD1
:1001F000D8A0FDEF80F0FFEF80F0E1EF80F0080E77
:1002000017EF81F00E500A6E0B6A0B50000AD8B43B
:100210000CEF81F0C2EF80F00A50040AD8B456EF18
:1002200080F0020AD8B4C4EF80F0C2EF80F0120070
:100230008AC0D9FF8BC0DAFFDECFF6FFDDCFF7FF34
:10024000000EF86E0800F550250AD8A42AEF81F0B8
:100250002CEF81F0F1EF81F08AC0D9FF8BC0DAFF7B
:10026000DE2A000EDD22000E0001C66F000EC56FF3
:10027000C5C0CBF0C769C869000E956F000E946FBA
:100280006EEF81F0CB838AC0D9FF8BC0DAFFDE2A04
:10029000000EDD226EEF81F0000E956F010E946F5F
:1002A0006EEF81F08AC0D9FF8BC0DAFFDECFF6FF98
:1002B000DDCFF7FF000EF86E0800F5508E6F8F6BE4
:1002C0008F51000AD8B467EF81F04CEF81F08E5166
:1002D000300AD8B442EF81F04CEF81F0945195117F
:1002E000D8B475EF81F077EF81F052EF81F08AC0DA
:1002F00066F08BC067F08CC068F08DC069F0C5EC0B
:1003000083F066C0C5F067C0C6F00001C6BF8DEFC0
:1003100081F08BEF81F092EF81F0CB81C56DC61F2C
:10032000D8B0C62B8AC0D9FF8BC0DAFFDECF96F0DB
:10033000DDCF97F096C0F6FF97C0F7FF000EF86E7E
:100340000800F550640AD8B4A8EF81F0AAEF81F054
:10035000BAEF81F096C0F6FF97C0F7FF000EF86E77
:100360000800F550690AD8A4B8EF81F0BAEF81F01F
:10037000E8EF81F08CC0D9FF8DC0DAFFDFCF8EF0BF
:10038000020EDE26DFCF8FF0000EDD228EC0D9FFF9
:100390008FC0DAFFDECF90F0DDCF91F0010E962511
:1003A0008E6F000E97218F6F8AC0D9FF8BC0DAFF46
:1003B0008EC0DEFF8FC0DDFF88C07BF089C07CF07F
:1003C00090C07DF091C07EF009EC82F008EF82F0E1
:1003D0008AC0D9FF8BC0DAFFDE2A000EDD2208EFCB
:1003E00082F08AC0D9FF8BC0DAFFDECFF6FFDDCF07
:1003F000F7FF000EF86E0800F5500001606F616BAA
:1004000088C062F089C063F02EEC84F0E8EF81F0E0
:10041000120000017EBF0FEF82F012EF82F0010E9A
:1004200013EF82F0000E856F8551D8B41AEF82F079
:100430001CEF82F020EF82F07D6D7E1FD8B07E2B06
:10044000C8BF25EF82F027EF82F028EF82F0CB9330
:10045000C8BF2FEF82F02DEF82F035EF82F0000E53
:10046000826F010E816F39EF82F0C7C081F0C8C082
:1004700082F0C5C083F0C6C084F08551D8B443EF84
:1004800082F045EF82F05CEF82F08307D8A084070A
:100490008551D8A44EEF82F050EF82F056EF82F0F3
:1004A000000E806F2B0E7F6F5AEF82F0000E806F70
:1004B0002D0E7F6F7FC085F0000E876F1F0E866F39
:1004C000000EEB6F95EF82F08607D8A08707CC0E61
:1004D0008625D96E000E8721DA6E7DC060F07EC061
:1004E00061F0000E636F0A0E626F19EC86F060C057
:1004F00066F061C067F046EC89F000016651300F8C
:10050000DF6E8107D8A082078307D8A084077DC04B
:1005100060F07EC061F0000E636F0A0E626FF9EC4E
:1005200084F060C07DF061C07EF0000187BFA1EF64
:1005300082F0875108E18605D8A0A1EF82F0A3EFF1
:1005400082F0CDEF82F07D517E11D8A4AAEF82F027
:10055000ACEF82F064EF82F082BFB9EF82F082519B
:1005600006E18105D8B0B7EF82F0B9EF82F064EF11
:1005700082F084BFC4EF82F0845108E18305D8A0E3
:10058000C4EF82F0C6EF82F0CDEF82F0CBB3CBEFB9
:1005900082F0CDEF82F064EF82F08551D8B4D3EFD2
:1005A00082F0D5EF82F0E0EF82F08607D8A08707CF
:1005B000CC0E8625D96E000E8721DA6E85C0DFFF4E
:1005C0007BC070F07CC071F0CC0E8625726F000E7F
:1005D0008721736F83C074F084C075F072EC86F06D
:1005E0001200000E0001816F000E826F000E836FFB
:1005F000000E846F000E806F000E7F6F060E67EC9A
:1006000089F000016051812761518223000E83230C
:10061000000E84237F4B802B80BF18EF83F0805126
:1006200009E1080E7F5DD8A018EF83F01AEF83F080
:10063000FEEF82F0030E7B6FD890843383338233D6
:1006400081337B2F1CEF83F081C060F082C061F0AA
:1006500083C062F084C063F0E40E646F0C0E656FBB
:10066000000E666F000E676FA5EC87F060C06CF03F
:1006700061C06DF062C06EF063C06FF0FF0E0001EC
:10068000706F030E716F000E726F000E736FCAEC05
:1006900086F06CC081F06DC082F06EC083F06FC0D8
:1006A00084F081C060F082C061F083C062F084C0D9
:1006B00063F0E80E0001646F030E656F000E666F55
:1006C000000E676FA5EC87F060C081F061C082F01A
:1006D00062C083F063C084F081C06CF082C06DF0B2
:1006E00083C06EF084C06FF0420E0001706F000E88
:1006F000716F000E726F000E736FCAEC86F06CC0E3
:1007000081F06DC082F06EC083F06FC084F081C054
:100710006CF082C06DF083C06EF084C06FF0030E89
:100720000001706F000E716F000E726F000E736F1C
:10073000CAEC86F06CC081F06DC082F06EC083F0B0
:100740006FC084F0000179517B6F7A517C6F7D6BB3
:100750007E6B81517B5D82517C5983517D598451DF
:100760007E59D8B0B6EF83F0B8EF83F0C0EF83F0D6
:100770007951815D796F7A5182597A6FC4EF83F034
:10078000000E7A6F000E796F1200000E00016E6F7E
:10079000000E6D6F66C0D9FF67C0DAFFDECFF6FFCF
:1007A000DDCFF7FF000EF86E0800F5502A0AD8A436
:1007B000DCEF83F0DEEF83F013EF84F066C0D9FF47
:1007C00067C0DAFFDE2A000EDD2268C0D9FF69C0EB
:1007D000DAFFDFCF6AF0020EDE26DFCF6BF0000E0D
:1007E000DD226AC0D9FF6BC0DAFFDECF6DF0DDCF4E
:1007F0006EF029EF84F06DC060F06EC061F0000E05
:10080000636F0A0E626F4DEC8AF000016C51602537
:100810006D6F000E61216E6F66C0D9FF67C0DAFF91
:10082000DE2A000EDD2266C0D9FF67C0DAFFDECF08
:10083000F6FFDDCFF7FF000EF86E0800F550D00F81
:100840006C6F090E6C6527EF84F029EF84F0FBEFE5
:1008500083F06DC066F06EC067F012000001625157
:100860006311D8B436EF84F038EF84F041EF84F0B0
:1008700062516311D8A43FEF84F041EF84F046EF5A
:1008800084F06051DEEC8AF093EF84F020EE0AF001
:100890006251D9266351DA22DE50DE10D8B453EF0C
:1008A00084F055EF84F070EF84F020EE0AF062518E
:1008B000D9266351DA2210EE03F06251E12663512A
:1008C000E222DE50E65CE650800A686FDE50800A65
:1008D0006859D8B06EEF84F070EF84F093EF84F035
:1008E00020EE03F06251D9266351DA22DECF64F0A4
:1008F000DDCF65F062C0D9FF63C0DAFFDECF66F0FE
:10090000DDCF67F064516625D96E65516721DA6ED7
:1009100060C0DFFF20EE03F06251D9266351DA2276
:10092000DE2A000EDD22120061EC8AF0F28EF28CDB
:10093000000E0001C46F800EC36F000E616F000EC9
:10094000606F1FEC8AF022EC89F0520E0001B46F48
:10095000290EE82EFED7B42FFCD700D0BCEC85F0D2
:1009600079C0BDF07AC0BEF0000E00017A6F000EB3
:10097000796FF1EC82F079C0BFF07AC0C0F0C1C0ED
:1009800060F0C2C061F01FEC8AF0000E0001A06FA1
:10099000030EA16FF20EA26FFF0EA36FBDC0A4F0F5
:1009A000BEC0A5F08CEC88F0000E0001626F030E53
:1009B000636F000E646FC7EC89F0000E0001A06F3A
:1009C000030EA16FE50EA26FFF0EA36FBFC0A4F0D0
:1009D000C0C0A5F08CEC88F0000E0001626F030E21
:1009E000636F010E646FC7EC89F0AEEF84F08CEF9B
:1009F00000F0000E0001656F63BF03EF85F001EFAB
:100A000085F009EF85F0626D631FD8B0632B010E8E
:100A1000656F61BF10EF85F00EEF85F016EF85F082
:100A2000606D611FD8B0612B010E651B000E676FF2
:100A3000000E666F62516311D8B421EF85F023EF89
:100A400085F04BEF85F0010E646F2BEF85F0D890A9
:100A500062376337642B63AF30EF85F032EF85F098
:100A600027EF85F0D890663767376251605D635134
:100A70006159D8A03EEF85F040EF85F045EF85F055
:100A80006251605F6351615B6681D890633362330A
:100A9000642F32EF85F06551D8B451EF85F053EFF4
:100AA00085F057EF85F0666D671FD8B0672B66C07D
:100AB00060F067C061F01200250E4024D96EDA6A3A
:100AC000000EDA22DF6AABA468EF85F06AEF85F0EA
:100AD0007FEF85F0250E4024D96EDA6A000EDA2207
:100AE000DF8202D87FEF85F00500FA6E0001F25137
:100AF000FD6EF351FE6EF451FF6EFA501200ABA280
:100B000084EF85F086EF85F09BEF85F0250E40247D
:100B1000D96EDA6A000EDA22DF8402D89BEF85F004
:100B20000500FA6E0001EF51FD6EF051FE6EF151BD
:100B3000FF6EFA501200250E4024D96EDA6A000EBC
:100B4000DA22DF50D8B4A7EF85F0A9EF85F0B9EF2E
:100B500085F002D8B7EF85F00500FA6E0001EC5180
:100B6000FD6EED51FE6EEE51FF6EFA501200BBEFBE
:100B700085F038EC8AF01200000E00017C6F000E48
:100B80007D6F000E7E6F000E7F6F000E816F000E76
:100B9000806F050E67EC89F0000160517C27615180
:100BA0007D23000E7E23000E7F23804B812B81BF8F
:100BB000E3EF85F0815109E1080E805DD8A0E3EFF5
:100BC00085F0E5EF85F0C9EF85F0030E7B6FD890D7
:100BD0007F337E337D337C337B2FE7EF85F07CC022
:100BE00060F07DC061F07EC062F07FC063F0E40E13
:100BF000646F0C0E656F000E666F000E676FA5ECDC
:100C000087F060C06CF061C06DF062C06EF063C0D0
:100C10006FF0FF0E0001706F030E716F000E726FA8
:100C2000000E736FCAEC86F06CC079F06DC07AF07C
:100C30001200000E0001656F61BF23EF86F021EF07
:100C400086F029EF86F0606D611FD8B0612B010E30
:100C5000656F63BF30EF86F02EEF86F034EF86F0DD
:100C6000626D631FD8B0632B62516311D8B43BEF40
:100C700086F03DEF86F061EF86F0010E646F45EF80
:100C800086F0D89062376337642B63AF4AEF86F003
:100C90004CEF86F041EF86F06251605D635161591F
:100CA000D8A055EF86F057EF86F05BEF86F06251E3
:100CB000605F6351615BD89063336233642F4CEFA4
:100CC00086F06551D8B467EF86F069EF86F06DEF76
:100CD00086F0606D611FD8B0612B60C060F061C0AC
:100CE00061F012000001CBA178EF86F07AEF86F078
:100CF00084EF86F072C069F073C06AF070C06BF068
:100D000071C06CF0FEEC88F0000175BF8AEF86F0D0
:100D10008CEF86F092EF86F074C079F075C07AF0AF
:100D200096EF86F0000E7A6F000E796F000E786FE6
:100D3000000E776FA9EF86F0000E616F200E606FD6
:100D400070C062F071C063F02EEC84F00001774B4C
:100D5000782B7951775D7851800A766F7A51800AC5
:100D60007659D8A0B6EF86F0B8EF86F09CEF86F003
:100D7000CBB1BDEF86F0BFEF86F0C9EF86F072C051
:100D800069F073C06AF070C06BF071C06CF0FEEC7B
:100D900088F01200000E0001746F000E756F000ED7
:100DA000766F000E776F7051711172117311D8B494
:100DB000DCEF86F0DEEF86F014EF87F0010E786F3F
:100DC000E8EF86F0D8907037713772377337782B29
:100DD00073AFEDEF86F0EFEF86F0E2EF86F0D8909C
:100DE000743775377637773770516C5D71516D593F
:100DF00072516E5973516F59D8A001EF87F003EF0C
:100E000087F00CEF87F070516C5F71516D5B725120
:100E10006E5B73516F5B7481D8907333723371332F
:100E20007033782FEFEF86F074C06CF075C06DF002
:100E300076C06EF077C06FF012009D9AB80E000178
:100E4000606F0A0E616F010E626FA9EC8AF09D98C7
:100E50004E0E0001606F130E616F010E626FA2EC07
:100E60008AF0080E7E6ED00EAB6E650EAC6E8A0EEA
:100E7000AF6E020E7F6EC00E0001606F150E616FC7
:100E8000010E626FB7EC8AF0AC0E0001606F150EB8
:100E9000616F010E626FB0EC8AF0B20E0001606FFC
:100EA000150E616F010E626FBEEC8AF0000E3D6E92
:100EB000000E436E000E426E080E416E000E406E34
:100EC000000E3F6E000E3E6E9D8A12000868096893
:100ED0008CEF87F001C0D9FF02C0DAFFDF5009189C
:100EE000076E014A022AE50E0724F66EF76AFE0E27
:100EF000F722F86A000EF8220800F5500818096E6B
:100F0000E50E0724F66EF76AFD0EF722F86A000E6A
:100F1000F8220800F5CF08F00306D8A0040603283D
:100F200006E10428D8A497EF87F099EF87F06AEFDD
:100F300087F0095008C005F0066A05C006F0056A8A
:100F40000510016E0650026E1200000E0001686F5F
:100F5000000E696F000E6A6F000E6B6F60A1B3EF39
:100F600087F0B5EF87F0BDEF87F0645168276551D2
:100F7000692366516A2367516B23D89064376537BC
:100F800066376737D89063336233613360336051BB
:100F9000611162116311D8A4D0EF87F0D2EF87F00E
:100FA000AEEF87F068C060F069C061F06AC062F0BF
:100FB0006BC063F012000001616F8C9691CF60F0FE
:100FC0000F0E000160176151F00B6011916E8C845F
:100FD000140EE82EFED700D08C9400D000D000D0A4
:100FE00000016139F00B616F91CF60F00F0E601757
:100FF0006151F00B6011916E8C84140EE82EFED7B7
:1010000000D08C94190E0001606F580EE82EFED7A8
:10101000602FFCD700F012009AC09EF09BC09FF09A
:1010200021EF88F098C088F099C089F09E0E0001E9
:101030008A6F000E8B6F9CC08CF09DC08DF018ECF9
:1010400081F09EC0F6FF9FC0F7FF000EF86E08000B
:10105000F5500009D8A42FEF88F031EF88F012EF97
:1010600088F0000E0001996F000E986F1200016E5B
:101070004150D8B43EEF88F040EF88F038EF88F068
:101080009DB845EF88F047EF88F04BEF88F001C03E
:10109000ADFF60EF88F09D982D0E4324D96EDA6A7B
:1010A000000EDA2201C0DFFF432A070E43645BEF24
:1010B00088F05DEF88F05FEF88F0000E436E410628
:1010C0009D8812000001616F8C8691CF60F00F0E39
:1010D000000160176151F00B6011916E8C8400D09B
:1010E00000D000D08C9400D000D000D00001613935
:1010F000F00B616F91CF60F00F0E60176151F00B34
:101100006011916E8C8400D000D000D08C94D00EF1
:10111000E82EFED700F01200A40E0001A66F000E0C
:10112000A76FA0C0A8F0A1C0A9F0000EAC6F000E80
:10113000AB6F000EB36F000EB26FA80E986F000E6B
:10114000996FA2C09AF0A3C09BF0A60E9C6F000EF0
:101150009D6F0CEC88F00001AB51A025D96EAC510D
:10116000A121DA6EDF6A120002EE00F011EE00F04B
:10117000EE6AE550E150FCE1E250FAE101EE00F0E8
:1011800011EE00F0EE6AE550E150FCE1E250FAE1C8
:1011900000EEB5F0370EEE6AE806FDE100EE25F050
:1011A0001F0EEE6AE806FDE14A904A92000194EFB4
:1011B00084F0056E000E076E000E066EEBEF88F0F1
:1011C000000E0624D96E020E0720DA6EDF5037ECCF
:1011D00088F0064A072A0550026E036A0250065C30
:1011E0000750800A046E0350800A0458D8A0FBEF11
:1011F00088F0FDEF88F0E0EF88F01200000E0001AB
:101200006F6F000E6E6F11EF89F06DC060F0616B53
:101210006BC062F06CC063F02EEC84F000016E4B8A
:101220006F2B6E516925D96E6F516A21DA6EDF50CE
:101230006D6F6D51D8A41FEF89F021EF89F005EF94
:1012400089F0120095968C9695948C949A500F0B79
:101250009A6E070E0001636F580E626F590EE82EEA
:10126000FED7622FFCD7632FFAD700D0020EDBEC3B
:1012700087F0280EDBEC87F0010EDBEC87F00C0E1C
:10128000DBEC87F0060EDBEC87F01200000167BF95
:1012900054EF89F0675106E16605D8B052EF89F046
:1012A00054EF89F062EF89F066C068F067C069F0BA
:1012B000681F691F684B692B68C066F069C067F0DA
:1012C00066EF89F066C066F067C067F01200000143
:1012D000646F64C062F0000162476247C2506219E5
:1012E000C30B6219C26EC280C282C2B27AEF89F0A9
:1012F0007CEF89F075EF89F0C4500001636F626B79
:10130000C3506225606F000E6321616F1200000EF2
:101310008D6E000E916E000E8C6E000E896E000EAA
:101320008E6E000E8A6E000E8F6E000E8B6E000E9B
:10133000906E966897683F0E926E98689368996869
:10134000BB0E946E95689A68F00EC1161200080ED6
:101350004160ADEF89F0AFEF89F0C5EF89F02D0E58
:101360004224D96EDA6A000EDA22DF50AD6E422ACC
:10137000070E4264BEEF89F0C0EF89F0C2EF89F03A
:10138000000E426E412AC6EF89F09D9812000001BE
:101390006441E842C00B8009DBEC87F062C0D9FFF2
:1013A00063C0DAFFDF5062EC88F00001624B632B10
:1013B00062C0D9FF63C0DAFFDF50D8A4E2EF89F042
:1013C000E4EF89F0CEEF89F01200D59CD7689D0E2E
:1013D000D66ED650D7CF63F00001646B63C064F063
:1013E000636B6311386E6451396EF294F28ABE0EEB
:1013F000606F150E616F010E626F9BEC8AF0170E25
:10140000D56E1200F2943950D76E38C0D6FF4450D2
:1014100045104610D8B40FEF8AF011EF8AF01EEF96
:101420008AF002D81EEF8AF00500FA6E4450FD6E75
:101430004550FE6E4650FF6EFA501200120060C01A
:1014400062F061C063F00001D89063336233D890DA
:10145000633362336251BE6E60C062F0030E621786
:10146000623BF00E6217BD50CF0B6211BD6E1200D1
:10147000B50E4024D96EDA6A000EDA22AECFDFFF55
:10148000402A070E406447EF8AF049EF8AF04BEF9D
:101490008AF0000E406E3E2A120000016051620385
:1014A000F3CF64F0F4CF65F060516303F350652728
:1014B00061516203F350652764C060F065C061F05C
:1014C0001200DCEC8AF087EC89F0CCEC8AF089EC35
:1014D0008AF07EEC8AF094EC8AF0E5EC89F01DEC61
:1014E00087F01200016ED58E000E3B24D96EDA6AA9
:1014F000010EDA2201C0DFFF3B2A12003C0EBD6E56
:10150000000EB66E800E796E000EBF6E7F0EBE6E40
:101510001200000EC16E920EC06E000EC36E000E61
:10152000C46E010EC26E1200CB68000ECC6E9E928D
:10153000040ECA6E120060C044F061C045F062C083
:1015400046F0120060C047F061C048F062C049F048
:10155000120060C0F5F061C0F6F062C0F7F0120052
:1015600060C0EFF061C0F0F062C0F1F0120060C046
:10157000F2F061C0F3F062C0F4F0120060C0ECF071
:1015800061C0EDF062C0EEF0120000EC80F0D9EC2A
:1015900088F0000E3B6E1200020ED36E000E9B6EA2
:1015A00012003950D76E38C0D6FF1200AB98AB8806
:1015B000120038EC8AF01200D09E120012001200C5
:0215C000120017
:06FFF800A0F4C4FFF8F7BD
:00000001FF
