:0400000084EF00F099
:100008004B82FACF0DF0FBCF0EF0D9CF0FF0DACF3D
:1000180010F0F6CF11F0F7CF12F0F8CF13F0F5CFBC
:1000280014F0F2AA1AEF00F01CEF00F02AEF00F02B
:10003800F2A421EF00F023EF00F02AEF00F09DEC8E
:1000480088F0D59E77EC89F072EF00F0F2AC2FEFD4
:1000580000F031EF00F072EF00F09DA836EF00F0ED
:1000680038EF00F04FEF00F09EA83DEF00F03FEFB3
:1000780000F04FEF00F002D84DEF00F00500FA6EE7
:100088000001F651FD6EF751FE6EF851FF6EFA5001
:10009800120072EF00F09DAA54EF00F056EF00F046
:1000A80072EF00F09EAA5BEF00F05DEF00F072EFD8
:1000B80000F002D86BEF00F00500FA6E0001F35172
:1000C800FD6EF451FE6EF551FF6EFA501200AE50FF
:1000D8001CEC89F09DEC88F072EF00F014C0F5FF7D
:1000E80013C0F8FF12C0F7FF11C0F6FF10C0DAFF07
:1000F8000FC0D9FF0EC0FBFF0DC0FAFF4B921100D5
:040108007AEF87F013
:10FDE4000000C0C101C30302C2C60607C705C5C4DB
:10FDF40004CC0C0DCD0FCFCE0E0ACACB0BC909080B
:10FE0400C8D81819D91BDBDA1A1EDEDF1FDD1D1C4A
:10FE1400DC14D4D515D71716D6D21213D311D1D0DA
:10FE240010F03031F133F3F23236F6F737F535347A
:10FE3400F43CFCFD3DFF3F3EFEFA3A3BFB39F9F84A
:10FE44003828E8E929EB2B2AEAEE2E2FEF2DEDECEA
:10FE54002CE42425E527E7E62622E2E323E121201A
:10FE6400E0A06061A163A3A26266A6A767A565641A
:10FE7400A46CACAD6DAF6F6EAEAA6A6BAB69A9A88A
:10FE84006878B8B979BB7B7ABABE7E7FBF7DBDBCCA
:10FE94007CB47475B577B7B67672B2B373B171705A
:10FEA400B0509091519353529296565797559594BA
:10FEB400549C5C5D9D5F9F9E5E5A9A9B5B995958CA
:10FEC40098884849894B8B8A4A4E8E8F4F8D4D4C6A
:10FED4008C4484854587474686824243834181809A
:10FEE4004000C1814001C0804101C0804100C18106
:10FEF4004001C0804100C1814000C1814001C080F7
:10FF04004101C0804100C1814000C1814001C080E5
:10FF14004100C1814001C0804101C0804100C181D4
:10FF24004001C0804100C1814000C1814001C080C6
:10FF34004100C1814001C0804101C0804100C181B4
:10FF44004000C1814001C0804101C0804100C181A5
:10FF54004001C0804100C1814000C1814001C08096
:10FF64004101C0804100C1814000C1814001C08085
:10FF74004100C1814001C0804101C0804100C18174
:10FF84004000C1814001C0804101C0804100C18165
:10FF94004001C0804100C1814000C1814001C08056
:10FFA4004100C1814001C0804101C0804100C18144
:10FFB4004001C0804100C1814000C1814001C08036
:10FFC4004101C0804100C1814000C1814001C08025
:10FFD4004100C1814001C0804101C0804100C18114
:10FFE4004049203D20253033645B75415D00552038
:0CFFF4003D20253033645B6D565D00003D
:020000040001F9
:10000000B0C0D9FFB1C0DAFFDECFF6FFDDCFF7FF1A
:10001000000EF86E0800F550250AD8A412EF80F003
:1000200014EF80F0D9EF80F0B0C0D9FFB1C0DAFF93
:10003000DE2A000EDD22000E396E000E386E38C04A
:100040003CF03A683B68000E0001B96F000EB86FD3
:1000500056EF80F03C82B0C0D9FFB1C0DAFFDE2A93
:10006000000EDD2256EF80F0000EB96F010EB86F62
:1000700056EF80F0B0C0D9FFB1C0DAFFDECFF6FF97
:10008000DDCFF7FF000EF86E0800F550346E356ACC
:100090003550000AD8B44FEF80F034EF80F0345080
:1000A000300AD8B42AEF80F034EF80F0B851B9119B
:1000B000D8B45DEF80F05FEF80F03AEF80F0B0C031
:1000C0001BF0B1C01CF0B2C01DF0B3C01EF0A8EC14
:1000D00082F01BC038F01CC039F039BE74EF80F0DC
:1000E00072EF80F079EF80F03C80386C391ED8B028
:1000F000392AB0C0D9FFB1C0DAFFDECFBAF0DDCF08
:10010000BBF0BAC0F6FFBBC0F7FF000EF86E0800E8
:10011000F550640AD8B48FEF80F091EF80F0A1EF32
:1001200080F0BAC0F6FFBBC0F7FF000EF86E080003
:10013000F550690AD8A49FEF80F0A1EF80F0D0EFCE
:1001400080F0B2C0D9FFB3C0DAFFDFCF34F0020EC7
:10015000DE26DFCF35F0000EDD2234C0D9FF35C0FA
:10016000DAFFDECFB4F0DDCFB5F0010E0001BA2525
:10017000346E000EBB21356EB0C0D9FFB1C0DAFFBE
:1001800034C0DEFF35C0DDFFAEC030F0AFC031F0AF
:10019000B4C032F0B5C033F0F0EC80F0EFEF80F097
:1001A000B0C0D9FFB1C0DAFFDE2A000EDD22EFEFCA
:1001B00080F0B0C0D9FFB1C0DAFFDECFF6FFDDCFEF
:1001C000F7FF000EF86E0800F550156E166AAEC007
:1001D00017F0AFC018F00FEC83F0D0EF80F01200F2
:1001E00033BEF5EF80F0F8EF80F0010EF9EF80F00C
:1001F000000E0001AB6FAB51D8B401EF81F003EFFB
:1002000081F007EF81F0326C331ED8B0332A3BBE49
:100210000CEF81F00EEF81F00FEF81F03C923BBECE
:1002200016EF81F014EF81F01CEF81F0000EA86F43
:10023000010EA76F20EF81F03AC0A7F03BC0A8F0F5
:1002400038C0A9F039C0AAF0AB51D8B42AEF81F078
:100250002CEF81F043EF81F0A907D8A0AA07AB519A
:10026000D8A435EF81F037EF81F03DEF81F0000E3B
:10027000A66F2B0EA56F41EF81F0000EA66F2D0E1D
:10028000A56FA5C0ABF0000EAD6F1F0EAC6F000EDA
:10029000A46F7CEF81F0AC07D8A0AD07850EAC252C
:1002A000D96E000EAD21DA6E32C015F033C016F0F3
:1002B000000E186E0A0E176EF1EC84F015C01BF0DC
:1002C00016C01CF004EC88F01B50300FDF6E0001EC
:1002D000A707D8A0A807A907D8A0AA0732C015F079
:1002E00033C016F0000E186E0A0E176E74EC83F011
:1002F00015C032F016C033F00001ADBF88EF81F0B9
:10030000AD5108E1AC05D8A088EF81F08AEF81F00B
:10031000B4EF81F032503310D8A491EF81F093EF15
:1003200081F04BEF81F0A8BFA0EF81F0A85106E16A
:10033000A705D8B09EEF81F0A0EF81F04BEF81F0E0
:10034000AABFABEF81F0AA5108E1A905D8A0ABEF95
:1003500081F0ADEF81F0B4EF81F03CB2B2EF81F00B
:10036000B4EF81F04BEF81F0AB51D8B4BAEF81F02C
:10037000BCEF81F0C7EF81F0AC07D8A0AD07850EC8
:10038000AC25D96E000EAD21DA6EABC0DFFF30C0F8
:1003900025F031C026F0850EAC25276E000EAD216C
:1003A000286EA9C029F0AAC02AF049EC85F01200F5
:1003B000000E0001A76F000EA86F000EA96F000EBF
:1003C000AA6F000EA66F000EA56F060E64EC88F0F3
:1003D00015500001A7271650A823000EA923000ED0
:1003E000AA23A54BA62BA6BFFFEF81F0A65109E1DA
:1003F000080EA55DD8A0FFEF81F001EF82F0E5EFD8
:1004000081F0030E306ED890AA33A933A833A733F6
:10041000302E03EF82F0A7C015F0A8C016F0A9C0D7
:1004200017F0AAC018F0E40E196E0C0E1A6E000E2A
:100430001B6E000E1C6E73EC86F015C021F016C00A
:1004400022F017C023F018C024F0FF0E256E030E13
:10045000266E000E276E000E286E9EEC85F021C0E1
:10046000A7F022C0A8F023C0A9F024C0AAF0A7C01A
:1004700015F0A8C016F0A9C017F0AAC018F0E80E31
:10048000196E030E1A6E000E1B6E000E1C6E73ECBE
:1004900086F015C0A7F016C0A8F017C0A9F018C0C4
:1004A000AAF0A7C021F0A8C022F0A9C023F0AAC0DA
:1004B00024F0420E256E000E266E000E276E000EF2
:1004C000286E9EEC85F021C0A7F022C0A8F023C0C2
:1004D000A9F024C0AAF0A7C021F0A8C022F0A9C0AA
:1004E00023F0AAC024F0030E256E000E266E000E27
:1004F000276E000E286E9EEC85F021C0A7F022C06A
:10050000A8F023C0A9F024C0AAF02E50306E2F50BE
:10051000316E326A336A0001A751305CA8513158FC
:10052000A9513258AA513358D8B099EF82F09BEFB5
:1005300082F0A3EF82F02E50A75D2E6E2F50A859A7
:100540002F6EA7EF82F0000E2F6E000E2E6E12009F
:10055000000E236E000E226E1BC0D9FF1CC0DAFFF6
:10056000DECFF6FFDDCFF7FF000EF86E0800F55086
:100570002A0AD8A4BEEF82F0C0EF82F0F4EF82F036
:100580001BC0D9FF1CC0DAFFDE2A000EDD221DC011
:10059000D9FF1EC0DAFFDFCF1FF0020EDE26DFCF4D
:1005A00020F0000EDD221FC0D9FF20C0DAFFDECF11
:1005B00022F0DDCF23F00AEF83F022C015F023C034
:1005C00016F0000E186E0A0E176EE5EC88F021503A
:1005D0001524226E000E1620236E1BC0D9FF1CC0EE
:1005E000DAFFDE2A000EDD221BC0D9FF1CC0DAFFB5
:1005F000DECFF6FFDDCFF7FF000EF86E0800F550F6
:10060000D00F216E090E216408EF83F00AEF83F00A
:10061000DDEF82F022C01BF023C01CF01200175047
:100620001810D8B416EF83F018EF83F021EF83F0A1
:1006300017501810D8A41FEF83F021EF83F026EF96
:1006400083F015508BEC89F073EF83F020EE0AF005
:100650001750D9261850DA22DE50DE10D8B433EF06
:1006600083F035EF83F050EF83F020EE0AF017505F
:10067000D9261850DA2210EE03F01750E126185050
:10068000E222DE50E65CE650800A1D6EDE50800AF3
:100690001D58D8B04EEF83F050EF83F073EF83F026
:1006A00020EE03F01750D9261850DA22DECF19F0C9
:1006B000DDCF1AF017C0D9FF18C0DAFFDECF1BF06C
:1006C000DDCF1CF019501B24D96E1A501C20DA6E95
:1006D00015C0DFFF20EE03F01750D9261850DA229C
:1006E000DE2A000EDD221200000E1A6E18BE7DEF0B
:1006F00083F07BEF83F083EF83F0176C181ED8B084
:10070000182A010E1A6E16BE8AEF83F088EF83F066
:1007100090EF83F0156C161ED8B0162A010E1A1A27
:10072000000E1C6E000E1B6E17501810D8B49BEFF5
:1007300083F09DEF83F0C5EF83F0010E196EA5EFF6
:1007400083F0D89017361836192A18AEAAEF83F01E
:10075000ACEF83F0A1EF83F0D8901B361C36175016
:10076000155C18501658D8A0B8EF83F0BAEF83F094
:10077000BFEF83F01750155E1850165A1B80D890A3
:1007800018321732192EACEF83F01A50D8B4CBEFD1
:1007900083F0CDEF83F0D1EF83F01B6C1C1ED8B03B
:1007A0001C2A1BC015F01CC016F012000BEC89F0BF
:1007B000000E00017F6F800E7E6F000E166E000E21
:1007C000156EB8EC88F0C1EC87F0000E2F6E000EAD
:1007D0002E6ED8EC81F02EC083F02FC084F097EC01
:1007E00084F02EC078F02FC079F083C02EF084C042
:1007F0002FF0D8EC81F02EC07AF02FC07BF07CC0B7
:1008000015F07DC016F0B8EC88F0D60E0001C26F6E
:10081000000EC36FF20EC46FFF0EC56F78C0C6F036
:1008200079C0C7F02BEC87F0D60E176E000E186E4D
:10083000000E196E81EC88F0D60E0001C26F000E1A
:10084000C36FE50EC46FFF0EC56F7AC0C6F07BC0E4
:10085000C7F02BEC87F0D60E176E000E186E010E47
:10086000196E81EC88F0EFEF83F084EF00F0600EFA
:100870004424D96EDA6A000EDA22DF6AABA443EFB1
:1008800084F045EF84F05AEF84F0600E4424D96E72
:10089000DA6A000EDA220001DF8202D85AEF84F011
:1008A0000500FA6EF051FD6EF151FE6EF251FF6ED1
:1008B000FA501200ABA25FEF84F061EF84F076EFA4
:1008C00084F0600E4424D96EDA6A000EDA22000148
:1008D000DF8402D876EF84F00500FA6EED51FD6EEC
:1008E000EE51FE6EEF51FF6EFA501200600E44247E
:1008F000D96EDA6A000EDA22DF50D8B482EF84F0C3
:1009000084EF84F094EF84F002D892EF84F0050035
:10091000FA6E0001EA51FD6EEB51FE6EEC51FF6E76
:10092000FA50120096EF84F0D0EC88F01200000E1E
:10093000316E000E326E000E336E000E346E000EFD
:10094000366E000E356E050E64EC88F015503126BB
:1009500016503222000E3322000E3422354A362A37
:1009600036BEBCEF84F0365009E1080E355CD8A0E5
:10097000BCEF84F0BEEF84F0A3EF84F0030E306E82
:10098000D8903432333232323132302EC0EF84F0EC
:1009900031C015F032C016F033C017F034C018F073
:1009A000E40E196E0C0E1A6E000E1B6E000E1C6EFD
:1009B00073EC86F015C021F016C022F017C023F0AA
:1009C00018C024F0FF0E256E030E266E000E276E53
:1009D000000E286E9EEC85F021C02EF022C02FF074
:1009E0001200000E1A6E16BEFAEF84F0F8EF84F0D3
:1009F00000EF85F0156C161ED8B0162A010E1A6E7F
:100A000018BE07EF85F005EF85F00BEF85F0176C4A
:100A1000181ED8B0182A17501810D8B412EF85F045
:100A200014EF85F038EF85F0010E196E1CEF85F09C
:100A3000D89017361836192A18AE21EF85F023EF13
:100A400085F018EF85F01750155C18501658D8A08F
:100A50002CEF85F02EEF85F032EF85F01750155E04
:100A60001850165AD89018321732192E23EF85F0E5
:100A70001A50D8B43EEF85F040EF85F044EF85F092
:100A8000156C161ED8B0162A15C015F016C016F033
:100A900012003CA04EEF85F050EF85F05AEF85F044
:100AA00027C01EF028C01FF025C020F026C021F06E
:100AB0009FEC87F02ABE5FEF85F061EF85F067EF6E
:100AC00085F029C02EF02AC02FF06BEF85F0000EC4
:100AD0002F6E000E2E6E000E2D6E000E2C6E7DEF12
:100AE00085F0000E166E200E156E25C017F026C07C
:100AF00018F00FEC83F02C4A2D2A2E502C5C2D5030
:100B0000800A2B6E2F50800A2B58D8A08AEF85F0D0
:100B10008CEF85F071EF85F03CB091EF85F093EFAD
:100B200085F09DEF85F027C01EF028C01FF025C07E
:100B300020F026C021F09FEC87F01200000E296EF5
:100B4000000E2A6E000E2B6E000E2C6E2550261005
:100B500027102810D8B4AFEF85F0B1EF85F0E7EF9C
:100B600085F0010E2D6EBBEF85F0D8902536263628
:100B7000273628362D2A28AEC0EF85F0C2EF85F043
:100B8000B5EF85F0D89029362A362B362C362550ED
:100B9000215C265022582750235828502458D8A08A
:100BA000D4EF85F0D6EF85F0DFEF85F02550215E9C
:100BB0002650225A2750235A2850245A2980D89048
:100BC00028322732263225322D2EC2EF85F029C059
:100BD00021F02AC022F02BC023F02CC024F01200F8
:100BE0009D9A6E0E156E080E166E010E176E5BEC5A
:100BF00089F09D98880E156E100E166E010E176EF8
:100C000054EC89F0080E7E6E900EAB6E240EAC6E26
:100C10008A0EAF6E020E7F6E1A0E156E130E166ED2
:100C2000010E176E69EC89F0060E156E130E166E26
:100C3000010E176E62EC89F00C0E156E130E166E17
:100C4000010E176E70EC89F0000E416E000E476EBB
:100C5000000E466E080E456E000E446E000E436E8A
:100C6000000E426E9D8A1200086809685AEF86F0ED
:100C700001C0D9FF02C0DAFFDF500918076E014A30
:100C8000022AE50E0724F66EF76AFE0EF722F86ACE
:100C9000000EF8220800F5500818096EE50E07242A
:100CA000F66EF76AFD0EF722F86A000EF8220800C9
:100CB000F5CF08F00306D8A00406032806E10428AF
:100CC000D8A465EF86F067EF86F038EF86F009501C
:100CD00008C005F0066A05C006F0056A0510016E39
:100CE0000650026E1200000E1D6E000E1E6E000EEB
:100CF0001F6E000E206E15A080EF86F082EF86F04A
:100D00008AEF86F019501D261A501E221B501F22F2
:100D10001C502022D89019361A361B361C36D89013
:100D200018321732163215321550161017101810C7
:100D3000D8A49DEF86F09FEF86F07BEF86F01DC074
:100D400015F01EC016F01FC017F020C018F01200DA
:100D5000166E8C9691CF15F00F0E15161650F00BDF
:100D60001510916E8C84140EE82EFED700D08C9452
:100D700000D000D000D01638F00B166E91CF15F0D1
:100D80000F0E15161650F00B1510916E8C84140E64
:100D9000E82EFED700D08C94190E156E580EE82E52
:100DA000FED7152EFCD700D01200BEC036F0BFC053
:100DB00037F0EAEF86F0BCC0AEF0BDC0AFF0360E43
:100DC0000001B06F000EB16FC0C0B2F0C1C0B3F08F
:100DD00000EC80F036C0F6FF37C0F7FF000EF86E6B
:100DE0000800F5500009D8A4F8EF86F0FAEF86F075
:100DF000DBEF86F0000E0001BD6F000EBC6F12002D
:100E0000016E4550D8B407EF87F009EF87F001EF86
:100E100087F09DB80EEF87F010EF87F014EF87F0A2
:100E200001C0ADFF29EF87F09D98700E4724D96E61
:100E3000DA6A000EDA2201C0DFFF472A070E476494
:100E400024EF87F026EF87F028EF87F0000E476E3B
:100E500045069D881200C60E0001C86F000EC96FBE
:100E6000C2C0CAF0C3C0CBF0000ECE6F000ECD6F73
:100E7000000ED56F000ED46FCA0EBC6F000EBD6F92
:100E8000C4C0BEF0C5C0BFF0C80EC06F000EC16FB9
:100E9000D5EC86F00001CD51C225D96ECE51C321CB
:100EA000DA6EDF6A1200166E8C8691CF15F00F0E87
:100EB00015161650F00B1510916E8C8400D000D0D2
:100EC00000D08C9400D000D000D01638F00B166EF5
:100ED00091CF15F00F0E15161650F00B1510916EE0
:100EE0008C8400D000D000D08C94D00EE82EFED799
:100EF00000F0120002EE00F011EE00F0EE6AE55094
:100F0000E150FCE1E250FAE101EE00F011EE00F0F8
:100F1000EE6AE550E150FCE1E250FAE100EE60F0EB
:100F2000450EEE6AE806FDE100EE38F0100EEE6ABE
:100F3000E806FDE14B904B920001D6EF83F0000EE6
:100F4000246E000E236EB0EF87F022C015F0166AF3
:100F500020C017F021C018F00FEC83F0234A242A98
:100F600023501E24D96E24501F20DA6EDF50226ECB
:100F70002250D8A4BEEF87F0C0EF87F0A5EF87F02E
:100F8000120095968C9695948C949A500F0B9A6EAD
:100F9000070E186E580E176E5A0EE82EFED7172E33
:100FA000FCD7182EFAD7020EA8EC86F0280EA8EC73
:100FB00086F0010EA8EC86F00C0EA8EC86F0060E6A
:100FC000A8EC86F01200000E3E24D96EDA6A010EFB
:100FD000DA22DF500A6E0A500B6E0C6AFF0E3E24B6
:100FE000D96EDA6A000EDA22DF500A6E0A500B263A
:100FF000000E0C22000E016E010E026E3EC003F0C8
:10100000046A34EC86F012001CBE11EF88F01C500C
:1010100006E11B04D8B00FEF88F011EF88F01FEF46
:1010200088F01BC01DF01CC01EF01D1E1E1E1D4A98
:101030001E2A1DC01BF01EC01CF023EF88F01BC031
:101040001BF01CC01CF01200000E8D6E000E916E85
:10105000000E8C6E000E896E000E8E6E000E8A6E73
:10106000000E8F6E000E8B6E000E906E9668976865
:101070003F0E926E986893689968BB0E946E95685F
:101080009A68F00EC1161200080E45604AEF88F00B
:101090004CEF88F062EF88F0700E4624D96EDA6A61
:1010A000000EDA22DF50AD6E462A070E46645BEF73
:1010B00088F05DEF88F05FEF88F0000E466E452AFD
:1010C00063EF88F09D981200196E19C017F017464B
:1010D0001746C2501718C30B1718C26EC280C282BF
:1010E000C2B275EF88F077EF88F070EF88F0C450E7
:1010F000186E176AC3501724156E000E1820166E4E
:1011000012001940E842C00B8009A8EC86F017C015
:10111000D9FF18C0DAFFDF5053EC87F0174A182ABE
:1011200017C0D9FF18C0DAFFDF50D8A49AEF88F0B3
:101130009CEF88F087EF88F01200F29440C0D6FF51
:10114000485049104A10D8B4A8EF88F0AAEF88F0A8
:10115000B7EF88F002D8B7EF88F00500FA6E485074
:10116000FD6E4950FE6E4A50FF6EFA50120012009A
:1011700015C017F016C018F0D89018321732D89052
:10118000183217321750BE6E15C017F0030E17161F
:10119000173AF00E1716BD50CF0B1710BD6E120088
:1011A000680E4424D96EDA6A000EDA22AECFDFFF71
:1011B000442A070E4464DFEF88F0E1EF88F0E3EFA4
:1011C00088F0000E446E422A120015501702F3CF29
:1011D00019F0F4CF1AF015501802F3501A261650D1
:1011E0001702F3501A2619C015F01AC016F0120093
:1011F000000ED76E510ED66E510E406EF294F28AEA
:10120000180E156E130E166E010E176E4DEC89F04A
:10121000F00ED56E120089EC89F024EC88F07EEC9B
:1012200089F033EC89F028EC89F046EC89F0F8EC91
:1012300088F0F0EC85F01200016ED58E000E3E2491
:10124000D96EDA6A010EDA2201C0DFFF3E2A1200EF
:101250003C0EBD6E000EB66E800E796E000EBF6E37
:101260007F0EBE6E1200000EC16E920EC06E000E9A
:10127000C36E000EC46E010EC26E1200026E020E2C
:1012800002260201005100EC87F01200CB68000E2C
:10129000CC6E9E92040ECA6E120015C048F016C0A5
:1012A00049F017C04AF0120015C0F6F016C0F7F06A
:1012B00017C0F8F0120015C0F3F016C0F4F017C014
:1012C000F5F0120015C0EDF016C0EEF017C0EFF00B
:1012D000120015C0F0F016C0F1F017C0F2F01200C5
:1012E00015C0EAF016C0EBF017C0ECF01200E3EC0A
:1012F00087F03EEC89F0000E3E6E1200020ED36EB7
:10130000000E9B6E1200AB98AB881200D0EC88F0F8
:0C1310001200D09E120012001200120009
:06FFF800A0F4C4FFF8F7BD
:00000001FF
